{
  "contractName": "CryptoFPLCards",
  "abi": [
    {
      "constant": true,
      "inputs": [
        {
          "name": "_owner",
          "type": "address"
        },
        {
          "name": "_id",
          "type": "uint256"
        }
      ],
      "name": "balanceOf",
      "outputs": [
        {
          "name": "",
          "type": "uint256"
        }
      ],
      "payable": false,
      "stateMutability": "view",
      "type": "function",
      "signature": "0x00fdd58e"
    },
    {
      "constant": true,
      "inputs": [
        {
          "name": "_interfaceID",
          "type": "bytes4"
        }
      ],
      "name": "supportsInterface",
      "outputs": [
        {
          "name": "",
          "type": "bool"
        }
      ],
      "payable": false,
      "stateMutability": "view",
      "type": "function",
      "signature": "0x01ffc9a7"
    },
    {
      "constant": true,
      "inputs": [
        {
          "name": "_id",
          "type": "uint256"
        }
      ],
      "name": "uri",
      "outputs": [
        {
          "name": "",
          "type": "string"
        }
      ],
      "payable": false,
      "stateMutability": "view",
      "type": "function",
      "signature": "0x0e89341c"
    },
    {
      "constant": false,
      "inputs": [
        {
          "name": "_from",
          "type": "address"
        },
        {
          "name": "_to",
          "type": "address"
        },
        {
          "name": "_ids",
          "type": "uint256[]"
        },
        {
          "name": "_amounts",
          "type": "uint256[]"
        },
        {
          "name": "_data",
          "type": "bytes"
        }
      ],
      "name": "safeBatchTransferFrom",
      "outputs": [],
      "payable": false,
      "stateMutability": "nonpayable",
      "type": "function",
      "signature": "0x2eb2c2d6"
    },
    {
      "constant": true,
      "inputs": [
        {
          "name": "_owners",
          "type": "address[]"
        },
        {
          "name": "_ids",
          "type": "uint256[]"
        }
      ],
      "name": "balanceOfBatch",
      "outputs": [
        {
          "name": "",
          "type": "uint256[]"
        }
      ],
      "payable": false,
      "stateMutability": "view",
      "type": "function",
      "signature": "0x4e1273f4"
    },
    {
      "constant": true,
      "inputs": [
        {
          "name": "",
          "type": "uint256"
        }
      ],
      "name": "ratings",
      "outputs": [
        {
          "name": "",
          "type": "uint8"
        }
      ],
      "payable": false,
      "stateMutability": "view",
      "type": "function",
      "signature": "0x5d30e84d"
    },
    {
      "constant": false,
      "inputs": [],
      "name": "renounceOwnership",
      "outputs": [],
      "payable": false,
      "stateMutability": "nonpayable",
      "type": "function",
      "signature": "0x715018a6"
    },
    {
      "constant": true,
      "inputs": [],
      "name": "owner",
      "outputs": [
        {
          "name": "",
          "type": "address"
        }
      ],
      "payable": false,
      "stateMutability": "view",
      "type": "function",
      "signature": "0x8da5cb5b"
    },
    {
      "constant": true,
      "inputs": [],
      "name": "isOwner",
      "outputs": [
        {
          "name": "",
          "type": "bool"
        }
      ],
      "payable": false,
      "stateMutability": "view",
      "type": "function",
      "signature": "0x8f32d59b"
    },
    {
      "constant": true,
      "inputs": [
        {
          "name": "",
          "type": "uint256"
        }
      ],
      "name": "positions",
      "outputs": [
        {
          "name": "",
          "type": "uint8"
        }
      ],
      "payable": false,
      "stateMutability": "view",
      "type": "function",
      "signature": "0x99fbab88"
    },
    {
      "constant": false,
      "inputs": [
        {
          "name": "_operator",
          "type": "address"
        },
        {
          "name": "_approved",
          "type": "bool"
        }
      ],
      "name": "setApprovalForAll",
      "outputs": [],
      "payable": false,
      "stateMutability": "nonpayable",
      "type": "function",
      "signature": "0xa22cb465"
    },
    {
      "constant": true,
      "inputs": [
        {
          "name": "owner",
          "type": "address"
        }
      ],
      "name": "ownedTokens",
      "outputs": [
        {
          "name": "",
          "type": "uint256[]"
        }
      ],
      "payable": false,
      "stateMutability": "view",
      "type": "function",
      "signature": "0xb12ab40f"
    },
    {
      "constant": true,
      "inputs": [],
      "name": "season",
      "outputs": [
        {
          "name": "",
          "type": "uint32"
        }
      ],
      "payable": false,
      "stateMutability": "view",
      "type": "function",
      "signature": "0xc50b0fb0"
    },
    {
      "constant": true,
      "inputs": [
        {
          "name": "_owner",
          "type": "address"
        },
        {
          "name": "_operator",
          "type": "address"
        }
      ],
      "name": "isApprovedForAll",
      "outputs": [
        {
          "name": "isOperator",
          "type": "bool"
        }
      ],
      "payable": false,
      "stateMutability": "view",
      "type": "function",
      "signature": "0xe985e9c5"
    },
    {
      "constant": false,
      "inputs": [
        {
          "name": "_from",
          "type": "address"
        },
        {
          "name": "_to",
          "type": "address"
        },
        {
          "name": "_id",
          "type": "uint256"
        },
        {
          "name": "_amount",
          "type": "uint256"
        },
        {
          "name": "_data",
          "type": "bytes"
        }
      ],
      "name": "safeTransferFrom",
      "outputs": [],
      "payable": false,
      "stateMutability": "nonpayable",
      "type": "function",
      "signature": "0xf242432a"
    },
    {
      "constant": false,
      "inputs": [
        {
          "name": "newOwner",
          "type": "address"
        }
      ],
      "name": "transferOwnership",
      "outputs": [],
      "payable": false,
      "stateMutability": "nonpayable",
      "type": "function",
      "signature": "0xf2fde38b"
    },
    {
      "inputs": [
        {
          "name": "_season",
          "type": "uint32"
        }
      ],
      "payable": false,
      "stateMutability": "nonpayable",
      "type": "constructor",
      "signature": "constructor"
    },
    {
      "payable": true,
      "stateMutability": "payable",
      "type": "fallback"
    },
    {
      "anonymous": false,
      "inputs": [
        {
          "indexed": false,
          "name": "ids",
          "type": "uint256[]"
        },
        {
          "indexed": false,
          "name": "owner",
          "type": "address"
        }
      ],
      "name": "LogTeamMinted",
      "type": "event",
      "signature": "0x596b94174caec1e7e9afd41a8fa987600e917bf5a6870d761428c709e80f1a2b"
    },
    {
      "anonymous": false,
      "inputs": [
        {
          "indexed": false,
          "name": "_uri",
          "type": "string"
        },
        {
          "indexed": true,
          "name": "_id",
          "type": "uint256"
        }
      ],
      "name": "URI",
      "type": "event",
      "signature": "0x6bb7ff708619ba0610cba295a58592e0451dee2622938c8755667688daf3529b"
    },
    {
      "anonymous": false,
      "inputs": [
        {
          "indexed": true,
          "name": "_operator",
          "type": "address"
        },
        {
          "indexed": true,
          "name": "_from",
          "type": "address"
        },
        {
          "indexed": true,
          "name": "_to",
          "type": "address"
        },
        {
          "indexed": false,
          "name": "_id",
          "type": "uint256"
        },
        {
          "indexed": false,
          "name": "_amount",
          "type": "uint256"
        }
      ],
      "name": "TransferSingle",
      "type": "event",
      "signature": "0xc3d58168c5ae7397731d063d5bbf3d657854427343f4c083240f7aacaa2d0f62"
    },
    {
      "anonymous": false,
      "inputs": [
        {
          "indexed": true,
          "name": "_operator",
          "type": "address"
        },
        {
          "indexed": true,
          "name": "_from",
          "type": "address"
        },
        {
          "indexed": true,
          "name": "_to",
          "type": "address"
        },
        {
          "indexed": false,
          "name": "_ids",
          "type": "uint256[]"
        },
        {
          "indexed": false,
          "name": "_amounts",
          "type": "uint256[]"
        }
      ],
      "name": "TransferBatch",
      "type": "event",
      "signature": "0x4a39dc06d4c0dbc64b70af90fd698a233a518aa5d07e595d983b8c0526c8f7fb"
    },
    {
      "anonymous": false,
      "inputs": [
        {
          "indexed": true,
          "name": "_owner",
          "type": "address"
        },
        {
          "indexed": true,
          "name": "_operator",
          "type": "address"
        },
        {
          "indexed": false,
          "name": "_approved",
          "type": "bool"
        }
      ],
      "name": "ApprovalForAll",
      "type": "event",
      "signature": "0x17307eab39ab6107e8899845ad3d59bd9653f200f220920489ca2b5937696c31"
    },
    {
      "anonymous": false,
      "inputs": [
        {
          "indexed": true,
          "name": "previousOwner",
          "type": "address"
        },
        {
          "indexed": true,
          "name": "newOwner",
          "type": "address"
        }
      ],
      "name": "OwnershipTransferred",
      "type": "event",
      "signature": "0x8be0079c531659141344cd1fd0a4f28419497f9722a3daafe3b4186f6b6457e0"
    },
    {
      "constant": false,
      "inputs": [],
      "name": "withdrawFunds",
      "outputs": [],
      "payable": false,
      "stateMutability": "nonpayable",
      "type": "function",
      "signature": "0x24600fc3"
    },
    {
      "constant": false,
      "inputs": [],
      "name": "withdrawRefund",
      "outputs": [],
      "payable": false,
      "stateMutability": "nonpayable",
      "type": "function",
      "signature": "0x110f8874"
    },
    {
      "constant": true,
      "inputs": [
        {
          "name": "tokenId",
          "type": "uint256"
        }
      ],
      "name": "positionOf",
      "outputs": [
        {
          "name": "",
          "type": "uint8"
        }
      ],
      "payable": false,
      "stateMutability": "view",
      "type": "function",
      "signature": "0x46f96023"
    },
    {
      "constant": true,
      "inputs": [],
      "name": "name",
      "outputs": [
        {
          "name": "",
          "type": "string"
        }
      ],
      "payable": false,
      "stateMutability": "pure",
      "type": "function",
      "signature": "0x06fdde03"
    },
    {
      "constant": true,
      "inputs": [],
      "name": "symbol",
      "outputs": [
        {
          "name": "",
          "type": "string"
        }
      ],
      "payable": false,
      "stateMutability": "pure",
      "type": "function",
      "signature": "0x95d89b41"
    },
    {
      "constant": true,
      "inputs": [],
      "name": "viewCardPackPrice",
      "outputs": [
        {
          "name": "price",
          "type": "uint256"
        }
      ],
      "payable": false,
      "stateMutability": "view",
      "type": "function",
      "signature": "0xe1b78c5b"
    },
    {
      "constant": false,
      "inputs": [
        {
          "name": "_owner",
          "type": "address"
        },
        {
          "name": "ids",
          "type": "uint256[]"
        },
        {
          "name": "playerPositions",
          "type": "uint256[]"
        },
        {
          "name": "amounts",
          "type": "uint256[]"
        }
      ],
      "name": "mintTeam",
      "outputs": [],
      "payable": true,
      "stateMutability": "payable",
      "type": "function",
      "signature": "0x1dd69f71"
    }
  ],
  "bytecode": "0x608060405267016345785d8a0000600755600a6008553480156200002257600080fd5b5060405160208062003a53833981018060405260208110156200004457600080fd5b8101908080519060200190929190505050336000806101000a81548173ffffffffffffffffffffffffffffffffffffffff021916908373ffffffffffffffffffffffffffffffffffffffff1602179055506000809054906101000a900473ffffffffffffffffffffffffffffffffffffffff1673ffffffffffffffffffffffffffffffffffffffff16600073ffffffffffffffffffffffffffffffffffffffff167f8be0079c531659141344cd1fd0a4f28419497f9722a3daafe3b4186f6b6457e060405160405180910390a362000187606060405190810160405280602681526020017f687474703a2f2f6c6f63616c686f73743a343030312f6170692f666f6f74626181526020017f6c6c6572732f0000000000000000000000000000000000000000000000000000815250620001af640100000000026401000000009004565b80600660006101000a81548163ffffffff021916908363ffffffff160217905550506200027a565b8060039080519060200190620001c7929190620001cb565b5050565b828054600181600116156101000203166002900490600052602060002090601f016020900481019282601f106200020e57805160ff19168380011785556200023f565b828001600101855582156200023f579182015b828111156200023e57825182559160200191906001019062000221565b5b5090506200024e919062000252565b5090565b6200027791905b808211156200027357600081600090555060010162000259565b5090565b90565b6137c9806200028a6000396000f3fe608060405260043610610132576000357c0100000000000000000000000000000000000000000000000000000000900463ffffffff168062fdd58e1461013457806301ffc9a7146101a357806306fdde03146102155780630e89341c146102a5578063110f8874146103595780631dd69f711461037057806324600fc3146105705780632eb2c2d61461058757806346f96023146107b75780634e1273f4146108145780635d30e84d14610944578063715018a6146109a15780638da5cb5b146109b85780638f32d59b14610a0f57806395d89b4114610a3e57806399fbab8814610ace578063a22cb46514610b2b578063b12ab40f14610b88578063c50b0fb014610c2e578063e1b78c5b14610c65578063e985e9c514610c90578063f242432a14610d19578063f2fde38b14610e35575b005b34801561014057600080fd5b5061018d6004803603604081101561015757600080fd5b81019080803573ffffffffffffffffffffffffffffffffffffffff16906020019092919080359060200190929190505050610e86565b6040518082815260200191505060405180910390f35b3480156101af57600080fd5b506101fb600480360360208110156101c657600080fd5b8101908080357bffffffffffffffffffffffffffffffffffffffffffffffffffffffff19169060200190929190505050610ee1565b604051808215151515815260200191505060405180910390f35b34801561022157600080fd5b5061022a610fca565b6040518080602001828103825283818151815260200191508051906020019080838360005b8381101561026a57808201518184015260208101905061024f565b50505050905090810190601f1680156102975780820380516001836020036101000a031916815260200191505b509250505060405180910390f35b3480156102b157600080fd5b506102de600480360360208110156102c857600080fd5b8101908080359060200190929190505050611007565b6040518080602001828103825283818151815260200191508051906020019080838360005b8381101561031e578082015181840152602081019050610303565b50505050905090810190601f16801561034b5780820380516001836020036101000a031916815260200191505b509250505060405180910390f35b34801561036557600080fd5b5061036e611109565b005b61056e6004803603608081101561038657600080fd5b81019080803573ffffffffffffffffffffffffffffffffffffffff169060200190929190803590602001906401000000008111156103c357600080fd5b8201836020820111156103d557600080fd5b803590602001918460208302840111640100000000831117156103f757600080fd5b919080806020026020016040519081016040528093929190818152602001838360200280828437600081840152601f19601f8201169050808301925050505050505091929192908035906020019064010000000081111561045757600080fd5b82018360208201111561046957600080fd5b8035906020019184602083028401116401000000008311171561048b57600080fd5b919080806020026020016040519081016040528093929190818152602001838360200280828437600081840152601f19601f820116905080830192505050505050509192919290803590602001906401000000008111156104eb57600080fd5b8201836020820111156104fd57600080fd5b8035906020019184602083028401116401000000008311171561051f57600080fd5b919080806020026020016040519081016040528093929190818152602001838360200280828437600081840152601f19601f8201169050808301925050505050505091929192905050506111dc565b005b34801561057c57600080fd5b50610585611604565b005b34801561059357600080fd5b506107b5600480360360a08110156105aa57600080fd5b81019080803573ffffffffffffffffffffffffffffffffffffffff169060200190929190803573ffffffffffffffffffffffffffffffffffffffff1690602001909291908035906020019064010000000081111561060757600080fd5b82018360208201111561061957600080fd5b8035906020019184602083028401116401000000008311171561063b57600080fd5b919080806020026020016040519081016040528093929190818152602001838360200280828437600081840152601f19601f8201169050808301925050505050505091929192908035906020019064010000000081111561069b57600080fd5b8201836020820111156106ad57600080fd5b803590602001918460208302840111640100000000831117156106cf57600080fd5b919080806020026020016040519081016040528093929190818152602001838360200280828437600081840152601f19601f8201169050808301925050505050505091929192908035906020019064010000000081111561072f57600080fd5b82018360208201111561074157600080fd5b8035906020019184600183028401116401000000008311171561076357600080fd5b91908080601f016020809104026020016040519081016040528093929190818152602001838380828437600081840152601f19601f820116905080830192505050505050509192919290505050611740565b005b3480156107c357600080fd5b506107f0600480360360208110156107da57600080fd5b8101908080359060200190929190505050611979565b6040518082600381111561080057fe5b60ff16815260200191505060405180910390f35b34801561082057600080fd5b506108ed6004803603604081101561083757600080fd5b810190808035906020019064010000000081111561085457600080fd5b82018360208201111561086657600080fd5b8035906020019184602083028401116401000000008311171561088857600080fd5b9091929391929390803590602001906401000000008111156108a957600080fd5b8201836020820111156108bb57600080fd5b803590602001918460208302840111640100000000831117156108dd57600080fd5b90919293919293905050506119a3565b6040518080602001828103825283818151815260200191508051906020019060200280838360005b83811015610930578082015181840152602081019050610915565b505050509050019250505060405180910390f35b34801561095057600080fd5b5061097d6004803603602081101561096757600080fd5b8101908080359060200190929190505050611b55565b6040518082600381111561098d57fe5b60ff16815260200191505060405180910390f35b3480156109ad57600080fd5b506109b6611b75565b005b3480156109c457600080fd5b506109cd611d0a565b604051808273ffffffffffffffffffffffffffffffffffffffff1673ffffffffffffffffffffffffffffffffffffffff16815260200191505060405180910390f35b348015610a1b57600080fd5b50610a24611d33565b604051808215151515815260200191505060405180910390f35b348015610a4a57600080fd5b50610a53611d8a565b6040518080602001828103825283818151815260200191508051906020019080838360005b83811015610a93578082015181840152602081019050610a78565b50505050905090810190601f168015610ac05780820380516001836020036101000a031916815260200191505b509250505060405180910390f35b348015610ada57600080fd5b50610b0760048036036020811015610af157600080fd5b8101908080359060200190929190505050611dc7565b60405180826003811115610b1757fe5b60ff16815260200191505060405180910390f35b348015610b3757600080fd5b50610b8660048036036040811015610b4e57600080fd5b81019080803573ffffffffffffffffffffffffffffffffffffffff169060200190929190803515159060200190929190505050611de7565b005b348015610b9457600080fd5b50610bd760048036036020811015610bab57600080fd5b81019080803573ffffffffffffffffffffffffffffffffffffffff169060200190929190505050611ee8565b6040518080602001828103825283818151815260200191508051906020019060200280838360005b83811015610c1a578082015181840152602081019050610bff565b505050509050019250505060405180910390f35b348015610c3a57600080fd5b50610c43611fbb565b604051808263ffffffff1663ffffffff16815260200191505060405180910390f35b348015610c7157600080fd5b50610c7a611fd1565b6040518082815260200191505060405180910390f35b348015610c9c57600080fd5b50610cff60048036036040811015610cb357600080fd5b81019080803573ffffffffffffffffffffffffffffffffffffffff169060200190929190803573ffffffffffffffffffffffffffffffffffffffff169060200190929190505050611fdb565b604051808215151515815260200191505060405180910390f35b348015610d2557600080fd5b50610e33600480360360a0811015610d3c57600080fd5b81019080803573ffffffffffffffffffffffffffffffffffffffff169060200190929190803573ffffffffffffffffffffffffffffffffffffffff169060200190929190803590602001909291908035906020019092919080359060200190640100000000811115610dad57600080fd5b820183602082011115610dbf57600080fd5b80359060200191846001830284011164010000000083111715610de157600080fd5b91908080601f016020809104026020016040519081016040528093929190818152602001838380828437600081840152601f19601f82011690508083019250505050505050919291929050505061206f565b005b348015610e4157600080fd5b50610e8460048036036020811015610e5857600080fd5b81019080803573ffffffffffffffffffffffffffffffffffffffff1690602001909291905050506122a8565b005b6000600160008473ffffffffffffffffffffffffffffffffffffffff1673ffffffffffffffffffffffffffffffffffffffff168152602001908152602001600020600083815260200190815260200160002054905092915050565b60006301ffc9a77c0100000000000000000000000000000000000000000000000000000000027bffffffffffffffffffffffffffffffffffffffffffffffffffffffff1916827bffffffffffffffffffffffffffffffffffffffffffffffffffffffff19161480610fb2575063d9b67a267c0100000000000000000000000000000000000000000000000000000000027bffffffffffffffffffffffffffffffffffffffffffffffffffffffff1916827bffffffffffffffffffffffffffffffffffffffffffffffffffffffff1916145b15610fc05760019050610fc5565b600090505b919050565b60606040805190810160405280600981526020017f43727970746f46504c0000000000000000000000000000000000000000000000815250905090565b606060036110148361238a565b60405160200180838054600181600116156101000203166002900480156110725780601f10611050576101008083540402835291820191611072565b820191906000526020600020905b81548152906001019060200180831161105e575b505082805190602001908083835b6020831015156110a55780518252602082019150602081019050602083039250611080565b6001836020036101000a038019825116818451168082178552505050505050905001807f2e6a736f6e000000000000000000000000000000000000000000000000000000815250600501925050506040516020818303038152906040529050919050565b6000600c60003373ffffffffffffffffffffffffffffffffffffffff1673ffffffffffffffffffffffffffffffffffffffff1681526020019081526020016000205490506000600c60003373ffffffffffffffffffffffffffffffffffffffff1673ffffffffffffffffffffffffffffffffffffffff168152602001908152602001600020819055503373ffffffffffffffffffffffffffffffffffffffff166108fc829081150290604051600060405180830381858888f193505050501580156111d8573d6000803e3d6000fd5b5050565b6007543410151515611256576040517f08c379a000000000000000000000000000000000000000000000000000000000815260040180806020018281038252601f8152602001807f496e73756666696369656e742066756e647320746f206d696e74207465616d0081525060200191505060405180910390fd5b6008548351141515156112d1576040517f08c379a000000000000000000000000000000000000000000000000000000000815260040180806020018281038252601f8152602001807f496e76616c6964206e756d626572206f6620636172647320696e207061636b0081525060200191505060405180910390fd5b81518351141515611370576040517f08c379a000000000000000000000000000000000000000000000000000000000815260040180806020018281038252602c8152602001807f506c617965722069647320616e6420706f736974696f6e73206172726179207381526020017f697a65206d69736d61746368000000000000000000000000000000000000000081525060400191505060405180910390fd5b8051835114151561140f576040517f08c379a00000000000000000000000000000000000000000000000000000000081526004018080602001828103825260328152602001807f506c617965722069647320616e6420616d6f756e747320746f206d696e74206181526020017f727261792073697a65206d69736d61746368000000000000000000000000000081525060400191505060405180910390fd5b61141984846124e9565b6114248484836126ae565b60008090505b83518110156114fa57600b6000858381518110151561144557fe5b90602001906020020151815260200190815260200160002060009054906101000a900460ff1615156114ed576114a9848281518110151561148257fe5b90602001906020020151848381518110151561149a57fe5b90602001906020020151612978565b6001600b600086848151811015156114bd57fe5b90602001906020020151815260200190815260200160002060006101000a81548160ff0219169083151502179055505b808060010191505061142a565b5060006007543403905080600c60003373ffffffffffffffffffffffffffffffffffffffff1673ffffffffffffffffffffffffffffffffffffffff168152602001908152602001600020600082825401925050819055507f596b94174caec1e7e9afd41a8fa987600e917bf5a6870d761428c709e80f1a2b848660405180806020018373ffffffffffffffffffffffffffffffffffffffff1673ffffffffffffffffffffffffffffffffffffffff168152602001828103825284818151815260200191508051906020019060200280838360005b838110156115e95780820151818401526020810190506115ce565b50505050905001935050505060405180910390a15050505050565b3073ffffffffffffffffffffffffffffffffffffffff16638da5cb5b6040518163ffffffff167c010000000000000000000000000000000000000000000000000000000002815260040160206040518083038186803b15801561166657600080fd5b505afa15801561167a573d6000803e3d6000fd5b505050506040513d602081101561169057600080fd5b810190808051906020019092919050505073ffffffffffffffffffffffffffffffffffffffff163373ffffffffffffffffffffffffffffffffffffffff161415156116da57600080fd5b60003073ffffffffffffffffffffffffffffffffffffffff163190503373ffffffffffffffffffffffffffffffffffffffff166108fc829081150290604051600060405180830381858888f1935050505015801561173c573d6000803e3d6000fd5b5050565b8473ffffffffffffffffffffffffffffffffffffffff163373ffffffffffffffffffffffffffffffffffffffff1614806118005750600260008673ffffffffffffffffffffffffffffffffffffffff1673ffffffffffffffffffffffffffffffffffffffff16815260200190815260200160002060003373ffffffffffffffffffffffffffffffffffffffff1673ffffffffffffffffffffffffffffffffffffffff16815260200190815260200160002060009054906101000a900460ff165b151561189a576040517f08c379a000000000000000000000000000000000000000000000000000000000815260040180806020018281038252602f8152602001807f45524331313535237361666542617463685472616e7366657246726f6d3a204981526020017f4e56414c49445f4f50455241544f52000000000000000000000000000000000081525060400191505060405180910390fd5b600073ffffffffffffffffffffffffffffffffffffffff168473ffffffffffffffffffffffffffffffffffffffff1614151515611965576040517f08c379a00000000000000000000000000000000000000000000000000000000081526004018080602001828103825260308152602001807f45524331313535237361666542617463685472616e7366657246726f6d3a204981526020017f4e56414c49445f524543495049454e540000000000000000000000000000000081525060400191505060405180910390fd5b6119728585858585612aad565b5050505050565b60006009600083815260200190815260200160002060009054906101000a900460ff169050919050565b60608282905085859050141515611a48576040517f08c379a000000000000000000000000000000000000000000000000000000000815260040180806020018281038252602c8152602001807f455243313135352362616c616e63654f6642617463683a20494e56414c49445f81526020017f41525241595f4c454e475448000000000000000000000000000000000000000081525060400191505060405180910390fd5b606085859050604051908082528060200260200182016040528015611a7c5781602001602082028038833980820191505090505b50905060008090505b86869050811015611b4857600160008888848181101515611aa257fe5b9050602002013573ffffffffffffffffffffffffffffffffffffffff1673ffffffffffffffffffffffffffffffffffffffff1673ffffffffffffffffffffffffffffffffffffffff16815260200190815260200160002060008686848181101515611b0957fe5b905060200201358152602001908152602001600020548282815181101515611b2d57fe5b90602001906020020181815250508080600101915050611a85565b5080915050949350505050565b600a6020528060005260406000206000915054906101000a900460ff1681565b3073ffffffffffffffffffffffffffffffffffffffff16638da5cb5b6040518163ffffffff167c010000000000000000000000000000000000000000000000000000000002815260040160206040518083038186803b158015611bd757600080fd5b505afa158015611beb573d6000803e3d6000fd5b505050506040513d6020811015611c0157600080fd5b810190808051906020019092919050505073ffffffffffffffffffffffffffffffffffffffff163373ffffffffffffffffffffffffffffffffffffffff16141515611c4b57600080fd5b600073ffffffffffffffffffffffffffffffffffffffff166000809054906101000a900473ffffffffffffffffffffffffffffffffffffffff1673ffffffffffffffffffffffffffffffffffffffff167f8be0079c531659141344cd1fd0a4f28419497f9722a3daafe3b4186f6b6457e060405160405180910390a360008060006101000a81548173ffffffffffffffffffffffffffffffffffffffff021916908373ffffffffffffffffffffffffffffffffffffffff160217905550565b60008060009054906101000a900473ffffffffffffffffffffffffffffffffffffffff16905090565b60008060009054906101000a900473ffffffffffffffffffffffffffffffffffffffff1673ffffffffffffffffffffffffffffffffffffffff163373ffffffffffffffffffffffffffffffffffffffff1614905090565b60606040805190810160405280600381526020017f46504c0000000000000000000000000000000000000000000000000000000000815250905090565b60096020528060005260406000206000915054906101000a900460ff1681565b80600260003373ffffffffffffffffffffffffffffffffffffffff1673ffffffffffffffffffffffffffffffffffffffff16815260200190815260200160002060008473ffffffffffffffffffffffffffffffffffffffff1673ffffffffffffffffffffffffffffffffffffffff16815260200190815260200160002060006101000a81548160ff0219169083151502179055508173ffffffffffffffffffffffffffffffffffffffff163373ffffffffffffffffffffffffffffffffffffffff167f17307eab39ab6107e8899845ad3d59bd9653f200f220920489ca2b5937696c3183604051808215151515815260200191505060405180910390a35050565b6060600073ffffffffffffffffffffffffffffffffffffffff168273ffffffffffffffffffffffffffffffffffffffff1614151515611f2657600080fd5b600460008373ffffffffffffffffffffffffffffffffffffffff1673ffffffffffffffffffffffffffffffffffffffff168152602001908152602001600020805480602002602001604051908101604052809291908181526020018280548015611faf57602002820191906000526020600020905b815481526020019060010190808311611f9b575b50505050509050919050565b600660009054906101000a900463ffffffff1681565b6000600754905090565b6000600260008473ffffffffffffffffffffffffffffffffffffffff1673ffffffffffffffffffffffffffffffffffffffff16815260200190815260200160002060008373ffffffffffffffffffffffffffffffffffffffff1673ffffffffffffffffffffffffffffffffffffffff16815260200190815260200160002060009054906101000a900460ff16905092915050565b8473ffffffffffffffffffffffffffffffffffffffff163373ffffffffffffffffffffffffffffffffffffffff16148061212f5750600260008673ffffffffffffffffffffffffffffffffffffffff1673ffffffffffffffffffffffffffffffffffffffff16815260200190815260200160002060003373ffffffffffffffffffffffffffffffffffffffff1673ffffffffffffffffffffffffffffffffffffffff16815260200190815260200160002060009054906101000a900460ff165b15156121c9576040517f08c379a000000000000000000000000000000000000000000000000000000000815260040180806020018281038252602a8152602001807f4552433131353523736166655472616e7366657246726f6d3a20494e56414c4981526020017f445f4f50455241544f520000000000000000000000000000000000000000000081525060400191505060405180910390fd5b600073ffffffffffffffffffffffffffffffffffffffff168473ffffffffffffffffffffffffffffffffffffffff1614151515612294576040517f08c379a000000000000000000000000000000000000000000000000000000000815260040180806020018281038252602b8152602001807f4552433131353523736166655472616e7366657246726f6d3a20494e56414c4981526020017f445f524543495049454e5400000000000000000000000000000000000000000081525060400191505060405180910390fd5b6122a185858585856131a5565b5050505050565b3073ffffffffffffffffffffffffffffffffffffffff16638da5cb5b6040518163ffffffff167c010000000000000000000000000000000000000000000000000000000002815260040160206040518083038186803b15801561230a57600080fd5b505afa15801561231e573d6000803e3d6000fd5b505050506040513d602081101561233457600080fd5b810190808051906020019092919050505073ffffffffffffffffffffffffffffffffffffffff163373ffffffffffffffffffffffffffffffffffffffff1614151561237e57600080fd5b6123878161364d565b50565b606060008214156123d2576040805190810160405280600181526020017f300000000000000000000000000000000000000000000000000000000000000081525090506124e4565b6000829050600083905060005b600083141515612405578080600101915050600a838115156123fd57fe5b0492506123df565b6060816040519080825280601f01601f19166020018201604052801561243a5781602001600182028038833980820191505090505b50905060006001830390505b6000841415156124db57600a8481151561245c57fe5b066030017f01000000000000000000000000000000000000000000000000000000000000000282828060019003935081518110151561249757fe5b9060200101907effffffffffffffffffffffffffffffffffffffffffffffffffffffffffffff1916908160001a905350600a848115156124d357fe5b049350612446565b81955050505050505b919050565b600073ffffffffffffffffffffffffffffffffffffffff168273ffffffffffffffffffffffffffffffffffffffff161415151561252557600080fd5b600080600090505b82518110156126a857600460008573ffffffffffffffffffffffffffffffffffffffff1673ffffffffffffffffffffffffffffffffffffffff1681526020019081526020016000208054905091506000600160008673ffffffffffffffffffffffffffffffffffffffff1673ffffffffffffffffffffffffffffffffffffffff168152602001908152602001600020600085848151811015156125cc57fe5b90602001906020020151815260200190815260200160002054141561269b57600460008573ffffffffffffffffffffffffffffffffffffffff1673ffffffffffffffffffffffffffffffffffffffff168152602001908152602001600020838281518110151561263857fe5b9060200190602002015190806001815401808255809150509060018203906000526020600020016000909192909190915055508160056000858481518110151561267e57fe5b906020019060200201518152602001908152602001600020819055505b808060010191505061252d565b50505050565b8051825114151561274d576040517f08c379a00000000000000000000000000000000000000000000000000000000081526004018080602001828103825260308152602001807f455243313135354d696e744275726e2362617463684d696e743a20494e56414c81526020017f49445f4152524159535f4c454e4754480000000000000000000000000000000081525060400191505060405180910390fd5b60008251905060008090505b8181101561286a576127f2838281518110151561277257fe5b90602001906020020151600160008873ffffffffffffffffffffffffffffffffffffffff1673ffffffffffffffffffffffffffffffffffffffff168152602001908152602001600020600087858151811015156127cb57fe5b9060200190602002015181526020019081526020016000205461374790919063ffffffff16565b600160008773ffffffffffffffffffffffffffffffffffffffff1673ffffffffffffffffffffffffffffffffffffffff1681526020019081526020016000206000868481518110151561284157fe5b906020019060200201518152602001908152602001600020819055508080600101915050612759565b508373ffffffffffffffffffffffffffffffffffffffff16600073ffffffffffffffffffffffffffffffffffffffff163373ffffffffffffffffffffffffffffffffffffffff167f4a39dc06d4c0dbc64b70af90fd698a233a518aa5d07e595d983b8c0526c8f7fb8686604051808060200180602001838103835285818151815260200191508051906020019060200280838360005b8381101561291b578082015181840152602081019050612900565b50505050905001838103825284818151815260200191508051906020019060200280838360005b8381101561295d578082015181840152602081019050612942565b5050505090500194505050505060405180910390a450505050565b60018114806129875750600281145b806129925750600381145b8061299d5750600481145b15156129a857600080fd5b60018114156129eb5760006009600084815260200190815260200160002060006101000a81548160ff021916908360038111156129e157fe5b0217905550612aa9565b6002811415612a2e5760016009600084815260200190815260200160002060006101000a81548160ff02191690836003811115612a2457fe5b0217905550612aa8565b6003811415612a715760026009600084815260200190815260200160002060006101000a81548160ff02191690836003811115612a6757fe5b0217905550612aa7565b60036009600084815260200190815260200160002060006101000a81548160ff02191690836003811115612aa157fe5b02179055505b5b5b5050565b81518351141515612b4c576040517f08c379a00000000000000000000000000000000000000000000000000000000081526004018080602001828103825260358152602001807f45524331313535235f7361666542617463685472616e7366657246726f6d3a2081526020017f494e56414c49445f4152524159535f4c454e475448000000000000000000000081525060400191505060405180910390fd5b60008351905060008090505b81811015612d6557612bf18482815181101515612b7157fe5b90602001906020020151600160008a73ffffffffffffffffffffffffffffffffffffffff1673ffffffffffffffffffffffffffffffffffffffff16815260200190815260200160002060008885815181101515612bca57fe5b9060200190602002015181526020019081526020016000205461376890919063ffffffff16565b600160008973ffffffffffffffffffffffffffffffffffffffff1673ffffffffffffffffffffffffffffffffffffffff16815260200190815260200160002060008784815181101515612c4057fe5b90602001906020020151815260200190815260200160002081905550612ced8482815181101515612c6d57fe5b90602001906020020151600160008973ffffffffffffffffffffffffffffffffffffffff1673ffffffffffffffffffffffffffffffffffffffff16815260200190815260200160002060008885815181101515612cc657fe5b9060200190602002015181526020019081526020016000205461374790919063ffffffff16565b600160008873ffffffffffffffffffffffffffffffffffffffff1673ffffffffffffffffffffffffffffffffffffffff16815260200190815260200160002060008784815181101515612d3c57fe5b906020019060200201518152602001908152602001600020819055508080600101915050612b58565b508473ffffffffffffffffffffffffffffffffffffffff168673ffffffffffffffffffffffffffffffffffffffff163373ffffffffffffffffffffffffffffffffffffffff167f4a39dc06d4c0dbc64b70af90fd698a233a518aa5d07e595d983b8c0526c8f7fb8787604051808060200180602001838103835285818151815260200191508051906020019060200280838360005b83811015612e15578082015181840152602081019050612dfa565b50505050905001838103825284818151815260200191508051906020019060200280838360005b83811015612e57578082015181840152602081019050612e3c565b5050505090500194505050505060405180910390a4612e8b8573ffffffffffffffffffffffffffffffffffffffff1661378a565b1561319d5760008573ffffffffffffffffffffffffffffffffffffffff1663bc197c8133898888886040518663ffffffff167c0100000000000000000000000000000000000000000000000000000000028152600401808673ffffffffffffffffffffffffffffffffffffffff1673ffffffffffffffffffffffffffffffffffffffff1681526020018573ffffffffffffffffffffffffffffffffffffffff1673ffffffffffffffffffffffffffffffffffffffff168152602001806020018060200180602001848103845287818151815260200191508051906020019060200280838360005b83811015612f8d578082015181840152602081019050612f72565b50505050905001848103835286818151815260200191508051906020019060200280838360005b83811015612fcf578082015181840152602081019050612fb4565b50505050905001848103825285818151815260200191508051906020019080838360005b8381101561300e578082015181840152602081019050612ff3565b50505050905090810190601f16801561303b5780820380516001836020036101000a031916815260200191505b5098505050505050505050602060405180830381600087803b15801561306057600080fd5b505af1158015613074573d6000803e3d6000fd5b505050506040513d602081101561308a57600080fd5b8101908080519060200190929190505050905063bc197c817c0100000000000000000000000000000000000000000000000000000000027bffffffffffffffffffffffffffffffffffffffffffffffffffffffff1916817bffffffffffffffffffffffffffffffffffffffffffffffffffffffff191614151561319b576040517f08c379a000000000000000000000000000000000000000000000000000000000815260040180806020018281038252603a8152602001807f45524331313535235f7361666542617463685472616e7366657246726f6d3a2081526020017f494e56414c49445f4f4e5f524543454956455f4d45535341474500000000000081525060400191505060405180910390fd5b505b505050505050565b61320882600160008873ffffffffffffffffffffffffffffffffffffffff1673ffffffffffffffffffffffffffffffffffffffff16815260200190815260200160002060008681526020019081526020016000205461376890919063ffffffff16565b600160008773ffffffffffffffffffffffffffffffffffffffff1673ffffffffffffffffffffffffffffffffffffffff1681526020019081526020016000206000858152602001908152602001600020819055506132bf82600160008773ffffffffffffffffffffffffffffffffffffffff1673ffffffffffffffffffffffffffffffffffffffff16815260200190815260200160002060008681526020019081526020016000205461374790919063ffffffff16565b600160008673ffffffffffffffffffffffffffffffffffffffff1673ffffffffffffffffffffffffffffffffffffffff1681526020019081526020016000206000858152602001908152602001600020819055508373ffffffffffffffffffffffffffffffffffffffff168573ffffffffffffffffffffffffffffffffffffffff163373ffffffffffffffffffffffffffffffffffffffff167fc3d58168c5ae7397731d063d5bbf3d657854427343f4c083240f7aacaa2d0f628686604051808381526020018281526020019250505060405180910390a46133b68473ffffffffffffffffffffffffffffffffffffffff1661378a565b156136465760008473ffffffffffffffffffffffffffffffffffffffff1663f23a6e6133888787876040518663ffffffff167c0100000000000000000000000000000000000000000000000000000000028152600401808673ffffffffffffffffffffffffffffffffffffffff1673ffffffffffffffffffffffffffffffffffffffff1681526020018573ffffffffffffffffffffffffffffffffffffffff1673ffffffffffffffffffffffffffffffffffffffff16815260200184815260200183815260200180602001828103825283818151815260200191508051906020019080838360005b838110156134b957808201518184015260208101905061349e565b50505050905090810190601f1680156134e65780820380516001836020036101000a031916815260200191505b509650505050505050602060405180830381600087803b15801561350957600080fd5b505af115801561351d573d6000803e3d6000fd5b505050506040513d602081101561353357600080fd5b8101908080519060200190929190505050905063f23a6e617c0100000000000000000000000000000000000000000000000000000000027bffffffffffffffffffffffffffffffffffffffffffffffffffffffff1916817bffffffffffffffffffffffffffffffffffffffffffffffffffffffff1916141515613644576040517f08c379a00000000000000000000000000000000000000000000000000000000081526004018080602001828103825260358152602001807f45524331313535235f736166655472616e7366657246726f6d3a20494e56414c81526020017f49445f4f4e5f524543454956455f4d455353414745000000000000000000000081525060400191505060405180910390fd5b505b5050505050565b600073ffffffffffffffffffffffffffffffffffffffff168173ffffffffffffffffffffffffffffffffffffffff161415151561368957600080fd5b8073ffffffffffffffffffffffffffffffffffffffff166000809054906101000a900473ffffffffffffffffffffffffffffffffffffffff1673ffffffffffffffffffffffffffffffffffffffff167f8be0079c531659141344cd1fd0a4f28419497f9722a3daafe3b4186f6b6457e060405160405180910390a3806000806101000a81548173ffffffffffffffffffffffffffffffffffffffff021916908373ffffffffffffffffffffffffffffffffffffffff16021790555050565b600080828401905083811015151561375e57600080fd5b8091505092915050565b600082821115151561377957600080fd5b600082840390508091505092915050565b600080823b90506000811191505091905056fea165627a7a72305820c32d7165921e94380fbc08129035ee47c63e696fcf44573cba1e2dc1c3c40a450029",
  "source": "pragma solidity ^0.5.0;\n\n/// @author Nichanan Kesonpat\n/// @title Base multi-fungible token contract for cards of CryptoFPL. A PvP card game based on Fantasy Premier League.\n\nimport \"../utils/Ownable.sol\";\nimport \"../erc/erc1155/ERC1155MintBurn.sol\";\nimport \"../erc/erc1155/ERC1155Metadata.sol\";\nimport \"./erc1155/CryptoFPL1155BaseEnumerable.sol\";\n\ncontract CryptoFPLCards is Ownable, ERC1155MintBurn, ERC1155Metadata, CryptoFPL1155BaseEnumerable {\n  \n  //Storage variables\n  uint32 public season;\n  uint CARDPACK_PRICE = 100000000000000000 wei;\n  uint CARDPACK_SIZE = 10;\n\n  //Structs and Enums\n  enum Position {\n    Goalkeeper,\n    Defender,\n    Midfielder,\n    Forward\n  }\n\n  enum Rating {\n    Rookie,\n    RisingStar,\n    FirstTeam,\n    MVP\n  }\n  \n  struct Footballer {\n    Rating rating;\n    Position position;\n    uint32 season;\n  }\n\n  //Maps tokenID to player position\n  mapping(uint => Position) public positions;\n  mapping(uint => Rating) public ratings;\n  mapping(uint => bool) private positionInitialized; //Only updates footballer positions for new ids.\n  mapping(address => uint) refunds; // Keeps track of refunds for players to withdraw from in case they deposited too much.\n\n  //Events\n  // event PlayerMinted(uint id, Position position, address owner);\n  event LogTeamMinted(uint256[] ids, address owner);\n\n  //Modifiers\n  modifier onlyOwner { require (msg.sender == this.owner()); _;}\n\n  //Functions\n  constructor(uint32 _season) public {\n    _setBaseMetadataURI(\"http://localhost:4001/api/footballers/\");\n    season = _season;\n  }\n\n  /// Fallback function\n  function () external payable {\n\n  }\n\n  /// Allows league admin to withdraw funds from the contract.\n  function withdrawFunds() external onlyOwner() {\n    uint availableFunds = address(this).balance;\n    msg.sender.transfer(availableFunds);\n  }\n\n  /// Lets the user withdraw the refund in case of overpayment\n  function withdrawRefund() external {\n    uint refund = refunds[msg.sender];\n    refunds[msg.sender] = 0;\n    msg.sender.transfer(refund);\n  }\n\n  /// Retrieves the Position of a footballer\n  /// @param tokenId of the footballer in question\n  /// @return the Position enum of the footballer\n  function positionOf(uint tokenId) external view returns(Position) {\n    return positions[tokenId];\n  }\n\n  function name() public pure returns(string memory) {\n    return 'CryptoFPL';\n  }\n\n  function symbol() public pure returns(string memory) {\n    return 'FPL';\n  }\n\n  function viewCardPackPrice() public view returns(uint price) {\n    return CARDPACK_PRICE;\n  }\n\n  /// Mints footballer card pack to a user\n  /// @param _owner address to mint to\n  /// @param ids of the footballers, as per the FPL API\n  /// @param playerPositions of the footballers 1 = GK, 2 = DEF, 3 = MID, 4 = FWD\n  /// @param amounts to mint for each footballer ID\n  function mintTeam(address _owner, uint[] memory ids, uint[] memory playerPositions, uint[] memory amounts) public payable {\n    require(msg.value >= CARDPACK_PRICE, \"Insufficient funds to mint team\");\n    require (ids.length != CARDPACK_SIZE, \"Invalid number of cards in pack\");\n    require (ids.length == playerPositions.length, \"Player ids and positions array size mismatch\");\n    require (ids.length == amounts.length, \"Player ids and amounts to mint array size mismatch\");\n    // require (msg.sender == _owner);\n    _addTokensTo(_owner, ids);\n    _batchMint(_owner, ids, amounts);\n  \n    for (uint i = 0; i < ids.length; i++) {\n      if (!positionInitialized[ids[i]]) {\n        _updatePosition(ids[i], playerPositions[i]);\n        positionInitialized[ids[i]] = true;\n      }\n    }\n    uint change = msg.value - CARDPACK_PRICE;\n    refunds[msg.sender] += change;\n    emit LogTeamMinted(ids, _owner);\n  }\n  \n  /// Updates the position of a footballer\n  /// @param tokenId of the footballer\n  /// @param position of the footballer to be updated to\n  function _updatePosition(uint tokenId, uint position) private {\n    require(position == 1 || position == 2 || position == 3 || position == 4);\n    \n    // Positions are 1-indexed in server but 0-indexed as Enums.  \n    if (position == 1) {\n      positions[tokenId] = Position.Goalkeeper;\n    } else if (position == 2) {\n      positions[tokenId] = Position.Defender;\n    } else if (position == 3) {\n      positions[tokenId] = Position.Midfielder;\n    } else {\n      positions[tokenId] = Position.Forward;\n    }\n  }\n\n\n}",
  "sourcePath": "/Users/NichananK/consensys-academy/CryptoFPL/contracts/CryptoFPLCore/CryptoFPLCards.sol",
  "compiler": {
    "name": "solc",
    "version": "0.5.0+commit.1d4f565a.Emscripten.clang"
  },
  "schemaVersion": "3.0.2",
  "updatedAt": "2019-07-30T14:17:38.715Z",
  "devdoc": {
    "methods": {
      "balanceOf(address,uint256)": {
        "params": {
          "_id": "ID of the Token",
          "_owner": "The address of the token holder"
        },
        "return": "The _owner's balance of the Token type requested"
      },
      "balanceOfBatch(address[],uint256[])": {
        "params": {
          "_ids": "ID of the Tokens",
          "_owners": "The addresses of the token holders"
        },
        "return": "The _owner's balance of the Token types requested (i.e. balance for each (owner, id) pair)"
      },
      "isApprovedForAll(address,address)": {
        "params": {
          "_operator": "Address of authorized operator",
          "_owner": "The owner of the Tokens"
        },
        "return": "True if the operator is approved, false if not"
      },
      "isOwner()": {
        "return": "true if `msg.sender` is the owner of the contract."
      },
      "mintTeam(address,uint256[],uint256[],uint256[])": {
        "params": {
          "_owner": "address to mint to",
          "amounts": "to mint for each footballer ID",
          "ids": "of the footballers, as per the FPL API",
          "playerPositions": "of the footballers 1 = GK, 2 = DEF, 3 = MID, 4 = FWD"
        }
      },
      "owner()": {
        "return": "the address of the owner."
      },
      "positionOf(uint256)": {
        "params": {
          "tokenId": "of the footballer in question"
        },
        "return": "the Position enum of the footballer"
      },
      "renounceOwnership()": {
        "details": "Allows the current owner to relinquish control of the contract."
      },
      "safeBatchTransferFrom(address,address,uint256[],uint256[],bytes)": {
        "params": {
          "_amounts": "Transfer amounts per token type",
          "_data": "Additional data with no specified format, sent in call to `_to`",
          "_from": "Source addresses",
          "_ids": "IDs of each token type",
          "_to": "Target addresses"
        }
      },
      "safeTransferFrom(address,address,uint256,uint256,bytes)": {
        "params": {
          "_amount": "Transfered amount",
          "_data": "Additional data with no specified format, sent in call to `_to`",
          "_from": "Source address",
          "_id": "ID of the token type",
          "_to": "Target address"
        }
      },
      "setApprovalForAll(address,bool)": {
        "params": {
          "_approved": "True if the operator is approved, false to revoke approval",
          "_operator": "Address to add to the set of authorized operators"
        }
      },
      "supportsInterface(bytes4)": {
        "params": {
          "_interfaceID": "The interface identifier, as specified in ERC-165"
        },
        "return": "`true` if the contract implements `_interfaceID` and"
      },
      "transferOwnership(address)": {
        "details": "Allows the current owner to transfer control of the contract to a newOwner.",
        "params": {
          "newOwner": "The address to transfer ownership to."
        }
      },
      "uri(uint256)": {
        "details": "URIs are defined in RFC 3986.     URIs are assumed to be deterministically generated based on token ID     Token IDs are assumed to be represented in their hex format in URIs ",
        "return": "URI string"
      }
    }
  },
  "userdoc": {
    "methods": {
      "balanceOf(address,uint256)": {
        "notice": "Get the balance of an account's Tokens"
      },
      "balanceOfBatch(address[],uint256[])": {
        "notice": "Get the balance of multiple account/token pairs"
      },
      "isApprovedForAll(address,address)": {
        "notice": "Queries the approval status of an operator for a given owner"
      },
      "mintTeam(address,uint256[],uint256[],uint256[])": {
        "notice": "Mints footballer card pack to a user"
      },
      "positionOf(uint256)": {
        "notice": "Retrieves the Position of a footballer"
      },
      "renounceOwnership()": {
        "notice": "Renouncing to ownership will leave the contract without an owner. It will not be possible to call the functions with the `onlyOwner` modifier anymore."
      },
      "safeBatchTransferFrom(address,address,uint256[],uint256[],bytes)": {
        "notice": "Send multiple types of Tokens from the _from address to the _to address (with safety call)"
      },
      "safeTransferFrom(address,address,uint256,uint256,bytes)": {
        "notice": "Transfers amount amount of an _id from the _from address to the _to address specified"
      },
      "setApprovalForAll(address,bool)": {
        "notice": "Enable or disable approval for a third party (\"operator\") to manage all of caller's tokens"
      },
      "supportsInterface(bytes4)": {
        "notice": "Query if a contract implements an interface"
      },
      "uri(uint256)": {
        "notice": "A distinct Uniform Resource Identifier (URI) for a given token."
      },
      "withdrawFunds()": {
        "notice": "Allows league admin to withdraw funds from the contract."
      },
      "withdrawRefund()": {
        "notice": "Lets the user withdraw the refund in case of overpayment"
      }
    }
  }
}