{
  "contractName": "CryptoFPLAdmin",
  "abi": [
    {
      "constant": true,
      "inputs": [],
      "name": "provableId",
      "outputs": [
        {
          "name": "",
          "type": "bytes32"
        }
      ],
      "payable": false,
      "stateMutability": "view",
      "type": "function"
    },
    {
      "constant": true,
      "inputs": [],
      "name": "leagueManager",
      "outputs": [
        {
          "name": "",
          "type": "address"
        }
      ],
      "payable": false,
      "stateMutability": "view",
      "type": "function"
    },
    {
      "anonymous": false,
      "inputs": [
        {
          "indexed": false,
          "name": "message",
          "type": "string"
        }
      ],
      "name": "LogNewProvableQuery",
      "type": "event"
    },
    {
      "anonymous": false,
      "inputs": [
        {
          "indexed": false,
          "name": "gameweek",
          "type": "uint256"
        },
        {
          "indexed": false,
          "name": "deadline",
          "type": "uint256"
        }
      ],
      "name": "LogNewGameweekBegin",
      "type": "event"
    },
    {
      "anonymous": false,
      "inputs": [
        {
          "indexed": false,
          "name": "gameweek",
          "type": "uint256"
        },
        {
          "indexed": false,
          "name": "deadlinePassed",
          "type": "bool"
        },
        {
          "indexed": false,
          "name": "timeNow",
          "type": "uint256"
        }
      ],
      "name": "LogDeadlineStatusUpdated",
      "type": "event"
    },
    {
      "constant": true,
      "inputs": [],
      "name": "isPaused",
      "outputs": [
        {
          "name": "",
          "type": "bool"
        }
      ],
      "payable": false,
      "stateMutability": "view",
      "type": "function"
    },
    {
      "constant": true,
      "inputs": [],
      "name": "viewDeadlineStatus",
      "outputs": [
        {
          "name": "_deadline",
          "type": "uint256"
        },
        {
          "name": "_deadlinePassed",
          "type": "bool"
        }
      ],
      "payable": false,
      "stateMutability": "view",
      "type": "function"
    },
    {
      "constant": false,
      "inputs": [],
      "name": "toggleContractPause",
      "outputs": [],
      "payable": false,
      "stateMutability": "nonpayable",
      "type": "function"
    },
    {
      "constant": false,
      "inputs": [
        {
          "name": "_deadline",
          "type": "uint256"
        }
      ],
      "name": "incrementGameweek",
      "outputs": [],
      "payable": false,
      "stateMutability": "nonpayable",
      "type": "function"
    },
    {
      "constant": false,
      "inputs": [],
      "name": "toggleDeadlinePassed",
      "outputs": [],
      "payable": true,
      "stateMutability": "payable",
      "type": "function"
    },
    {
      "constant": false,
      "inputs": [
        {
          "name": "_provableId",
          "type": "bytes32"
        },
        {
          "name": "_res",
          "type": "string"
        }
      ],
      "name": "__callback",
      "outputs": [],
      "payable": false,
      "stateMutability": "nonpayable",
      "type": "function"
    },
    {
      "constant": false,
      "inputs": [
        {
          "name": "_myid",
          "type": "bytes32"
        },
        {
          "name": "_result",
          "type": "string"
        },
        {
          "name": "_proof",
          "type": "bytes"
        }
      ],
      "name": "__callback",
      "outputs": [],
      "payable": false,
      "stateMutability": "nonpayable",
      "type": "function"
    }
  ],
  "bytecode": "0x60806040526000600760006101000a81548160ff0219169083151502179055506000600955635d4db4a0600a556000600b60006101000a81548160ff02191690831515021790555034801561005357600080fd5b50612143806100636000396000f3fe608060405260043610610099576000357c0100000000000000000000000000000000000000000000000000000000900463ffffffff1680632575d0c71461009e57806327dc297e146100a857806338bbfa501461017a57806386f9c864146102e35780639cf262b5146102fa578063b187bd2614610325578063bce1dd2414610354578063ea93ae41146103ab578063fc1d6354146103e6575b600080fd5b6100a661041c565b005b3480156100b457600080fd5b50610178600480360360408110156100cb57600080fd5b8101908080359060200190929190803590602001906401000000008111156100f257600080fd5b82018360208201111561010457600080fd5b8035906020019184600183028401116401000000008311171561012657600080fd5b91908080601f016020809104026020016040519081016040528093929190818152602001838380828437600081840152601f19601f82011690508083019250505050505050919291929050505061074e565b005b34801561018657600080fd5b506102e16004803603606081101561019d57600080fd5b8101908080359060200190929190803590602001906401000000008111156101c457600080fd5b8201836020820111156101d657600080fd5b803590602001918460018302840111640100000000831117156101f857600080fd5b91908080601f016020809104026020016040519081016040528093929190818152602001838380828437600081840152601f19601f8201169050808301925050505050505091929192908035906020019064010000000081111561025b57600080fd5b82018360208201111561026d57600080fd5b8035906020019184600183028401116401000000008311171561028f57600080fd5b91908080601f016020809104026020016040519081016040528093929190818152602001838380828437600081840152601f19601f820116905080830192505050505050509192919290505050610823565b005b3480156102ef57600080fd5b506102f8610847565b005b34801561030657600080fd5b5061030f61095e565b6040518082815260200191505060405180910390f35b34801561033157600080fd5b5061033a610964565b604051808215151515815260200191505060405180910390f35b34801561036057600080fd5b5061036961097b565b604051808273ffffffffffffffffffffffffffffffffffffffff1673ffffffffffffffffffffffffffffffffffffffff16815260200191505060405180910390f35b3480156103b757600080fd5b506103e4600480360360208110156103ce57600080fd5b81019080803590602001909291905050506109a1565b005b3480156103f257600080fd5b506103fb610b05565b60405180838152602001821515151581526020019250505060405180910390f35b600560009054906101000a900473ffffffffffffffffffffffffffffffffffffffff1673ffffffffffffffffffffffffffffffffffffffff163373ffffffffffffffffffffffffffffffffffffffff16141515610507576040517f08c379a000000000000000000000000000000000000000000000000000000000815260040180806020018281038252602f8152602001807f4f6e6c7920746865206c6561677565206d616e616765722063616e207065726681526020017f6f726d207468697320616374696f6e000000000000000000000000000000000081525060400191505060405180910390fd5b3073ffffffffffffffffffffffffffffffffffffffff163161055d6040805190810160405280600381526020017f55524c0000000000000000000000000000000000000000000000000000000000815250610b23565b11156105f6577fc4dc360d0a9c0677a3379ae0a3d81e887f761e65fdf3d7e00859d1bcd3c4738960405180806020018281038252602e8152602001807f506c656173652061646420736f6d652045544820746f20636f76657220666f7281526020017f207468652071756572792066656500000000000000000000000000000000000081525060400191505060405180910390a161074c565b7fc4dc360d0a9c0677a3379ae0a3d81e887f761e65fdf3d7e00859d1bcd3c473896040518080602001828103825260278152602001807f70726f7661626c65207175657279207761732073656e742c207374616e64696e81526020017f672062792e2e2e0000000000000000000000000000000000000000000000000081525060400191505060405180910390a16107456040805190810160405280600381526020017f55524c0000000000000000000000000000000000000000000000000000000000815250608060405190810160405280604181526020017f6a736f6e28687474703a2f2f776f726c6474696d656170692e6f72672f61706981526020017f2f74696d657a6f6e652f4575726f70652f4c6f6e646f6e292e756e697854696d81526020017f6500000000000000000000000000000000000000000000000000000000000000815250610f0a565b6006819055505b565b6107566114c3565b73ffffffffffffffffffffffffffffffffffffffff163373ffffffffffffffffffffffffffffffffffffffff1614151561078f57600080fd5b600061079a82611836565b9050600a548111156107c2576001600760006101000a81548160ff0219169083151502179055505b7f4c97b356a78d40593befa5f223e75b96e277f9b9214b77dd51c2b6898cb0ef9c600954600760009054906101000a900460ff16836040518084815260200183151515158152602001828152602001935050505060405180910390a1505050565b60006001026003600080600102815260200190815260200160002081905550505050565b600560009054906101000a900473ffffffffffffffffffffffffffffffffffffffff1673ffffffffffffffffffffffffffffffffffffffff163373ffffffffffffffffffffffffffffffffffffffff16141515610932576040517f08c379a000000000000000000000000000000000000000000000000000000000815260040180806020018281038252602f8152602001807f4f6e6c7920746865206c6561677565206d616e616765722063616e207065726681526020017f6f726d207468697320616374696f6e000000000000000000000000000000000081525060400191505060405180910390fd5b600b60009054906101000a900460ff1615600b60006101000a81548160ff021916908315150217905550565b60065481565b6000600b60009054906101000a900460ff16905090565b600560009054906101000a900473ffffffffffffffffffffffffffffffffffffffff1681565b600560009054906101000a900473ffffffffffffffffffffffffffffffffffffffff1673ffffffffffffffffffffffffffffffffffffffff163373ffffffffffffffffffffffffffffffffffffffff16141515610a8c576040517f08c379a000000000000000000000000000000000000000000000000000000000815260040180806020018281038252602f8152602001807f4f6e6c7920746865206c6561677565206d616e616765722063616e207065726681526020017f6f726d207468697320616374696f6e000000000000000000000000000000000081525060400191505060405180910390fd5b600160096000828254019250508190555080600a819055506000600760006101000a81548160ff0219169083151502179055507fa21c7a9265c04997aa5d2437820f73de709c1520d918243528537c2c41db3561600954600a54604051808381526020018281526020019250505060405180910390a150565b600080600a54600760009054906101000a900460ff16915091509091565b60008073ffffffffffffffffffffffffffffffffffffffff16600160009054906101000a900473ffffffffffffffffffffffffffffffffffffffff1673ffffffffffffffffffffffffffffffffffffffff161480610bab57506000610ba9600160009054906101000a900473ffffffffffffffffffffffffffffffffffffffff1661184a565b145b15610bbc57610bba6000611855565b505b600160009054906101000a900473ffffffffffffffffffffffffffffffffffffffff1673ffffffffffffffffffffffffffffffffffffffff166338cc48316040518163ffffffff167c0100000000000000000000000000000000000000000000000000000000028152600401602060405180830381600087803b158015610c4257600080fd5b505af1158015610c56573d6000803e3d6000fd5b505050506040513d6020811015610c6c57600080fd5b810190808051906020019092919050505073ffffffffffffffffffffffffffffffffffffffff166000809054906101000a900473ffffffffffffffffffffffffffffffffffffffff1673ffffffffffffffffffffffffffffffffffffffff16141515610dd357600160009054906101000a900473ffffffffffffffffffffffffffffffffffffffff1673ffffffffffffffffffffffffffffffffffffffff166338cc48316040518163ffffffff167c0100000000000000000000000000000000000000000000000000000000028152600401602060405180830381600087803b158015610d5857600080fd5b505af1158015610d6c573d6000803e3d6000fd5b505050506040513d6020811015610d8257600080fd5b81019080805190602001909291905050506000806101000a81548173ffffffffffffffffffffffffffffffffffffffff021916908373ffffffffffffffffffffffffffffffffffffffff1602179055505b6000809054906101000a900473ffffffffffffffffffffffffffffffffffffffff1673ffffffffffffffffffffffffffffffffffffffff1663524f3889836040518263ffffffff167c01000000000000000000000000000000000000000000000000000000000281526004018080602001828103825283818151815260200191508051906020019080838360005b83811015610e7c578082015181840152602081019050610e61565b50505050905090810190601f168015610ea95780820380516001836020036101000a031916815260200191505b5092505050602060405180830381600087803b158015610ec857600080fd5b505af1158015610edc573d6000803e3d6000fd5b505050506040513d6020811015610ef257600080fd5b81019080805190602001909291905050509050919050565b60008073ffffffffffffffffffffffffffffffffffffffff16600160009054906101000a900473ffffffffffffffffffffffffffffffffffffffff1673ffffffffffffffffffffffffffffffffffffffff161480610f9257506000610f90600160009054906101000a900473ffffffffffffffffffffffffffffffffffffffff1661184a565b145b15610fa357610fa16000611855565b505b600160009054906101000a900473ffffffffffffffffffffffffffffffffffffffff1673ffffffffffffffffffffffffffffffffffffffff166338cc48316040518163ffffffff167c0100000000000000000000000000000000000000000000000000000000028152600401602060405180830381600087803b15801561102957600080fd5b505af115801561103d573d6000803e3d6000fd5b505050506040513d602081101561105357600080fd5b810190808051906020019092919050505073ffffffffffffffffffffffffffffffffffffffff166000809054906101000a900473ffffffffffffffffffffffffffffffffffffffff1673ffffffffffffffffffffffffffffffffffffffff161415156111ba57600160009054906101000a900473ffffffffffffffffffffffffffffffffffffffff1673ffffffffffffffffffffffffffffffffffffffff166338cc48316040518163ffffffff167c0100000000000000000000000000000000000000000000000000000000028152600401602060405180830381600087803b15801561113f57600080fd5b505af1158015611153573d6000803e3d6000fd5b505050506040513d602081101561116957600080fd5b81019080805190602001909291905050506000806101000a81548173ffffffffffffffffffffffffffffffffffffffff021916908373ffffffffffffffffffffffffffffffffffffffff1602179055505b60008060009054906101000a900473ffffffffffffffffffffffffffffffffffffffff1673ffffffffffffffffffffffffffffffffffffffff1663524f3889856040518263ffffffff167c01000000000000000000000000000000000000000000000000000000000281526004018080602001828103825283818151815260200191508051906020019080838360005b8381101561126557808201518184015260208101905061124a565b50505050905090810190601f1680156112925780820380516001836020036101000a031916815260200191505b5092505050602060405180830381600087803b1580156112b157600080fd5b505af11580156112c5573d6000803e3d6000fd5b505050506040513d60208110156112db57600080fd5b8101908080519060200190929190505050905062030d403a02670de0b6b3a7640000018111156113125760006001029150506114bd565b6000809054906101000a900473ffffffffffffffffffffffffffffffffffffffff1673ffffffffffffffffffffffffffffffffffffffff1663adf59f9982600087876040518563ffffffff167c0100000000000000000000000000000000000000000000000000000000028152600401808481526020018060200180602001838103835285818151815260200191508051906020019080838360005b838110156113c95780820151818401526020810190506113ae565b50505050905090810190601f1680156113f65780820380516001836020036101000a031916815260200191505b50838103825284818151815260200191508051906020019080838360005b8381101561142f578082015181840152602081019050611414565b50505050905090810190601f16801561145c5780820380516001836020036101000a031916815260200191505b50955050505050506020604051808303818588803b15801561147d57600080fd5b505af1158015611491573d6000803e3d6000fd5b50505050506040513d60208110156114a857600080fd5b81019080805190602001909291905050509150505b92915050565b60008073ffffffffffffffffffffffffffffffffffffffff16600160009054906101000a900473ffffffffffffffffffffffffffffffffffffffff1673ffffffffffffffffffffffffffffffffffffffff16148061154b57506000611549600160009054906101000a900473ffffffffffffffffffffffffffffffffffffffff1661184a565b145b1561155c5761155a6000611855565b505b600160009054906101000a900473ffffffffffffffffffffffffffffffffffffffff1673ffffffffffffffffffffffffffffffffffffffff166338cc48316040518163ffffffff167c0100000000000000000000000000000000000000000000000000000000028152600401602060405180830381600087803b1580156115e257600080fd5b505af11580156115f6573d6000803e3d6000fd5b505050506040513d602081101561160c57600080fd5b810190808051906020019092919050505073ffffffffffffffffffffffffffffffffffffffff166000809054906101000a900473ffffffffffffffffffffffffffffffffffffffff1673ffffffffffffffffffffffffffffffffffffffff1614151561177357600160009054906101000a900473ffffffffffffffffffffffffffffffffffffffff1673ffffffffffffffffffffffffffffffffffffffff166338cc48316040518163ffffffff167c0100000000000000000000000000000000000000000000000000000000028152600401602060405180830381600087803b1580156116f857600080fd5b505af115801561170c573d6000803e3d6000fd5b505050506040513d602081101561172257600080fd5b81019080805190602001909291905050506000806101000a81548173ffffffffffffffffffffffffffffffffffffffff021916908373ffffffffffffffffffffffffffffffffffffffff1602179055505b6000809054906101000a900473ffffffffffffffffffffffffffffffffffffffff1673ffffffffffffffffffffffffffffffffffffffff1663c281d19e6040518163ffffffff167c010000000000000000000000000000000000000000000000000000000002815260040160206040518083038186803b1580156117f657600080fd5b505afa15801561180a573d6000803e3d6000fd5b505050506040513d602081101561182057600080fd5b8101908080519060200190929190505050905090565b6000611843826000611866565b9050919050565b6000813b9050919050565b600061185f611b01565b9050919050565b600060608390506000809050600080905060008090505b8351811015611ae2576030848281518110151561189657fe5b9060200101517f010000000000000000000000000000000000000000000000000000000000000090047f0100000000000000000000000000000000000000000000000000000000000000027f0100000000000000000000000000000000000000000000000000000000000000900460ff161015801561199457506039848281518110151561192057fe5b9060200101517f010000000000000000000000000000000000000000000000000000000000000090047f0100000000000000000000000000000000000000000000000000000000000000027f0100000000000000000000000000000000000000000000000000000000000000900460ff1611155b15611a485781156119b75760008614156119ad57611ae2565b8580600190039650505b600a83029250603084828151811015156119cd57fe5b9060200101517f010000000000000000000000000000000000000000000000000000000000000090047f0100000000000000000000000000000000000000000000000000000000000000027f0100000000000000000000000000000000000000000000000000000000000000900460ff160383019250611ad5565b602e8482815181101515611a5857fe5b9060200101517f010000000000000000000000000000000000000000000000000000000000000090047f0100000000000000000000000000000000000000000000000000000000000000027f0100000000000000000000000000000000000000000000000000000000000000900460ff161415611ad457600191505b5b808060010191505061187d565b506000851115611af55784600a0a820291505b81935050505092915050565b600080611b21731d3b2638a7cc9f2cb3d298a3da7a90b67e5506ed61184a565b1115611bc357731d3b2638a7cc9f2cb3d298a3da7a90b67e5506ed600160006101000a81548173ffffffffffffffffffffffffffffffffffffffff021916908373ffffffffffffffffffffffffffffffffffffffff160217905550611bba6040805190810160405280600b81526020017f6574685f6d61696e6e6574000000000000000000000000000000000000000000815250612058565b60019050612055565b6000611be273c03a2615d5efaf5f49f60b7bb6583eaec212fdf161184a565b1115611c845773c03a2615d5efaf5f49f60b7bb6583eaec212fdf1600160006101000a81548173ffffffffffffffffffffffffffffffffffffffff021916908373ffffffffffffffffffffffffffffffffffffffff160217905550611c7b6040805190810160405280600c81526020017f6574685f726f707374656e330000000000000000000000000000000000000000815250612058565b60019050612055565b6000611ca373b7a07bcf2ba2f2703b24c0691b5278999c59ac7e61184a565b1115611d455773b7a07bcf2ba2f2703b24c0691b5278999c59ac7e600160006101000a81548173ffffffffffffffffffffffffffffffffffffffff021916908373ffffffffffffffffffffffffffffffffffffffff160217905550611d3c6040805190810160405280600981526020017f6574685f6b6f76616e0000000000000000000000000000000000000000000000815250612058565b60019050612055565b6000611d6473146500cfd35b22e4a392fe0adc06de1a1368ed4861184a565b1115611e065773146500cfd35b22e4a392fe0adc06de1a1368ed48600160006101000a81548173ffffffffffffffffffffffffffffffffffffffff021916908373ffffffffffffffffffffffffffffffffffffffff160217905550611dfd6040805190810160405280600b81526020017f6574685f72696e6b656279000000000000000000000000000000000000000000815250612058565b60019050612055565b6000611e2573a2998efd205fb9d4b4963afb70778d6354ad3a4161184a565b1115611ec75773a2998efd205fb9d4b4963afb70778d6354ad3a41600160006101000a81548173ffffffffffffffffffffffffffffffffffffffff021916908373ffffffffffffffffffffffffffffffffffffffff160217905550611ebe6040805190810160405280600a81526020017f6574685f676f65726c6900000000000000000000000000000000000000000000815250612058565b60019050612055565b6000611ee6736f485c8bf6fc43ea212e93bbf8ce046c7f1cb47561184a565b1115611f4a57736f485c8bf6fc43ea212e93bbf8ce046c7f1cb475600160006101000a81548173ffffffffffffffffffffffffffffffffffffffff021916908373ffffffffffffffffffffffffffffffffffffffff16021790555060019050612055565b6000611f697320e12a1f859b3feae5fb2a0a32c18f5a65555bbf61184a565b1115611fcd577320e12a1f859b3feae5fb2a0a32c18f5a65555bbf600160006101000a81548173ffffffffffffffffffffffffffffffffffffffff021916908373ffffffffffffffffffffffffffffffffffffffff16021790555060019050612055565b6000611fec7351efaf4c8b3c9afbd5ab9f4bbc82784ab6ef8faa61184a565b1115612050577351efaf4c8b3c9afbd5ab9f4bbc82784ab6ef8faa600160006101000a81548173ffffffffffffffffffffffffffffffffffffffff021916908373ffffffffffffffffffffffffffffffffffffffff16021790555060019050612055565b600090505b90565b806002908051906020019061206e929190612072565b5050565b828054600181600116156101000203166002900490600052602060002090601f016020900481019282601f106120b357805160ff19168380011785556120e1565b828001600101855582156120e1579182015b828111156120e05782518255916020019190600101906120c5565b5b5090506120ee91906120f2565b5090565b61211491905b808211156121105760008160009055506001016120f8565b5090565b9056fea165627a7a7230582026707289ae8b7b9410a48bb40378e1f0d3f2ffa386e08f1b9e1558505c0d4bd40029",
  "source": "pragma solidity ^0.5.0;\n\nimport \"../ProvableAPI.sol\";\n\n    /// @author Nichanan Kesonpat\n    /// @title Admin functions for CryptoFPL\n\ncontract CryptoFPLAdmin is usingProvable {\n\n    /// Storage variables\n    address payable public leagueManager;\n    bytes32 public provableId;\n    bool deadlinePassed = false;\n    uint entryFee;\n    uint gameweek = 0;\n    uint deadline = 1565373600; // Gameweek deadline epoch\n    bool private paused = false;\n\n    /// Events\n    event LogNewProvableQuery(string message);\n    event LogNewGameweekBegin(uint gameweek, uint deadline);\n    event LogDeadlineStatusUpdated(uint gameweek, bool deadlinePassed, uint timeNow);\n\n    /// Modifiers\n    modifier isLeagueManager() { require(msg.sender == leagueManager, \"Only the league manager can perform this action\"); _; }\n    modifier stopInEmergency() { require(!paused, \"Cannot execute this function when contract is paused\"); _; }\n    modifier onlyInEmergency() { require(paused, \"This function can only be executed if the contract has been paused\"); _; }\n    modifier withinDeadline() {require(!deadlinePassed, \"This function can only be executed within the gameweek deadline\"); _; }\n\n    /// Returns the pause status of the contract\n    /// @dev Circuit breaker for contract\n    /// @return boolean of whether or not the contract is currently paused\n    function isPaused() external view returns(bool) {\n        return paused;\n    }\n\n    /// Returns deadline passed status\n    /// @return boolean of whether or not the gameweek deadline has passed\n    function viewDeadlineStatus() external view returns(uint _deadline, bool _deadlinePassed) {\n        return (deadline, deadlinePassed);\n    }\n\n    /// Allows the admin to pause certain contract functions to be called in case of emergency\n    /// Functions paused in emergency are: createGame, joinGame, commitTeam, and revealTeam\n    function toggleContractPause() external isLeagueManager() {\n        paused = !paused;\n    }\n\n    /// Updates the live gameweek\n    /// @param _deadline time epoch of the live gameweek\n    function incrementGameweek(uint _deadline) external isLeagueManager() {\n        gameweek += 1;\n        deadline = _deadline;\n        deadlinePassed = false;\n        emit LogNewGameweekBegin(gameweek, deadline);\n    }\n\n    // /// Backup function to toggle deadline if provable query fails\n    // function toggleDeadlinePassedBackup() external isLeagueManager() {\n    //     deadlinePassed = !deadlinePassed;\n    // }\n\n    /// Queries the current time (GMT+1) using Provable\n    /// @dev should be called by admin when the gameweek deadline has passed\n    function toggleDeadlinePassed() external payable isLeagueManager() {\n        if (provable_getPrice(\"URL\") > address(this).balance) {\n            emit LogNewProvableQuery(\"Please add some ETH to cover for the query fee\");\n        } else {\n            emit LogNewProvableQuery(\"provable query was sent, standing by...\");\n            provableId = provable_query(\"URL\", \"json(http://worldtimeapi.org/api/timezone/Europe/London).unixTime\");\n        }\n    }\n\n    /// Handles ProvableAPI call response\n    /// @dev sets the 'deadlinePassed' variable to true if the current time exceeds the gameweek deadline.\n    function __callback(bytes32 _provableId, string memory _res) public {\n        require(msg.sender == provable_cbAddress());\n        uint timeNow = parseInt(_res);\n        if (timeNow > deadline) {\n            deadlinePassed = true;\n        }\n        emit LogDeadlineStatusUpdated(gameweek, deadlinePassed, timeNow);\n    }\n\n}",
  "sourcePath": "/Users/NichananK/consensys-academy/CryptoFPL/contracts/CryptoFPLCore/CryptoFPLAdmin.sol",
  "compiler": {
    "name": "solc",
    "version": "0.5.0+commit.1d4f565a.Emscripten.clang"
  },
  "schemaVersion": "3.0.2",
  "updatedAt": "2019-07-30T13:16:23.707Z",
  "devdoc": {
    "author": "Nichanan Kesonpat",
    "methods": {
      "__callback(bytes32,string)": {
        "details": "sets the 'deadlinePassed' variable to true if the current time exceeds the gameweek deadline."
      },
      "incrementGameweek(uint256)": {
        "params": {
          "_deadline": "time epoch of the live gameweek"
        }
      },
      "isPaused()": {
        "details": "Circuit breaker for contract",
        "return": "boolean of whether or not the contract is currently paused"
      },
      "toggleDeadlinePassed()": {
        "details": "should be called by admin when the gameweek deadline has passed"
      },
      "viewDeadlineStatus()": {
        "return": "boolean of whether or not the gameweek deadline has passed"
      }
    },
    "title": "Admin functions for CryptoFPL"
  },
  "userdoc": {
    "methods": {
      "__callback(bytes32,string)": {
        "notice": "Handles ProvableAPI call response"
      },
      "incrementGameweek(uint256)": {
        "notice": "Updates the live gameweek"
      },
      "isPaused()": {
        "notice": "Returns the pause status of the contract"
      },
      "toggleContractPause()": {
        "notice": "Allows the admin to pause certain contract functions to be called in case of emergency Functions paused in emergency are: createGame, joinGame, commitTeam, and revealTeam"
      },
      "toggleDeadlinePassed()": {
        "notice": "Queries the current time (GMT+1) using Provable"
      },
      "viewDeadlineStatus()": {
        "notice": "Returns deadline passed status"
      }
    }
  }
}