{
  "contractName": "ERC1155MintBurnPackedBalance",
  "abi": [
    {
      "constant": true,
      "inputs": [
        {
          "name": "_owner",
          "type": "address"
        },
        {
          "name": "_id",
          "type": "uint256"
        }
      ],
      "name": "balanceOf",
      "outputs": [
        {
          "name": "",
          "type": "uint256"
        }
      ],
      "payable": false,
      "stateMutability": "view",
      "type": "function"
    },
    {
      "constant": true,
      "inputs": [
        {
          "name": "_interfaceID",
          "type": "bytes4"
        }
      ],
      "name": "supportsInterface",
      "outputs": [
        {
          "name": "",
          "type": "bool"
        }
      ],
      "payable": false,
      "stateMutability": "view",
      "type": "function"
    },
    {
      "constant": false,
      "inputs": [
        {
          "name": "_from",
          "type": "address"
        },
        {
          "name": "_to",
          "type": "address"
        },
        {
          "name": "_ids",
          "type": "uint256[]"
        },
        {
          "name": "_amounts",
          "type": "uint256[]"
        },
        {
          "name": "_data",
          "type": "bytes"
        }
      ],
      "name": "safeBatchTransferFrom",
      "outputs": [],
      "payable": false,
      "stateMutability": "nonpayable",
      "type": "function"
    },
    {
      "constant": true,
      "inputs": [
        {
          "name": "_owners",
          "type": "address[]"
        },
        {
          "name": "_ids",
          "type": "uint256[]"
        }
      ],
      "name": "balanceOfBatch",
      "outputs": [
        {
          "name": "",
          "type": "uint256[]"
        }
      ],
      "payable": false,
      "stateMutability": "view",
      "type": "function"
    },
    {
      "constant": true,
      "inputs": [
        {
          "name": "_binAmount",
          "type": "uint256"
        },
        {
          "name": "_index",
          "type": "uint256"
        },
        {
          "name": "_amount",
          "type": "uint256"
        }
      ],
      "name": "writeValueInBin",
      "outputs": [
        {
          "name": "",
          "type": "uint256"
        }
      ],
      "payable": false,
      "stateMutability": "pure",
      "type": "function"
    },
    {
      "constant": false,
      "inputs": [
        {
          "name": "_operator",
          "type": "address"
        },
        {
          "name": "_approved",
          "type": "bool"
        }
      ],
      "name": "setApprovalForAll",
      "outputs": [],
      "payable": false,
      "stateMutability": "nonpayable",
      "type": "function"
    },
    {
      "constant": true,
      "inputs": [
        {
          "name": "_id",
          "type": "uint256"
        }
      ],
      "name": "getIDBinIndex",
      "outputs": [
        {
          "name": "bin",
          "type": "uint256"
        },
        {
          "name": "index",
          "type": "uint256"
        }
      ],
      "payable": false,
      "stateMutability": "pure",
      "type": "function"
    },
    {
      "constant": true,
      "inputs": [
        {
          "name": "_owner",
          "type": "address"
        },
        {
          "name": "_operator",
          "type": "address"
        }
      ],
      "name": "isApprovedForAll",
      "outputs": [
        {
          "name": "isOperator",
          "type": "bool"
        }
      ],
      "payable": false,
      "stateMutability": "view",
      "type": "function"
    },
    {
      "constant": true,
      "inputs": [
        {
          "name": "_binAmount",
          "type": "uint256"
        },
        {
          "name": "_index",
          "type": "uint256"
        }
      ],
      "name": "getValueInBin",
      "outputs": [
        {
          "name": "",
          "type": "uint256"
        }
      ],
      "payable": false,
      "stateMutability": "pure",
      "type": "function"
    },
    {
      "constant": false,
      "inputs": [
        {
          "name": "_from",
          "type": "address"
        },
        {
          "name": "_to",
          "type": "address"
        },
        {
          "name": "_id",
          "type": "uint256"
        },
        {
          "name": "_amount",
          "type": "uint256"
        },
        {
          "name": "_data",
          "type": "bytes"
        }
      ],
      "name": "safeTransferFrom",
      "outputs": [],
      "payable": false,
      "stateMutability": "nonpayable",
      "type": "function"
    },
    {
      "anonymous": false,
      "inputs": [
        {
          "indexed": true,
          "name": "_operator",
          "type": "address"
        },
        {
          "indexed": true,
          "name": "_from",
          "type": "address"
        },
        {
          "indexed": true,
          "name": "_to",
          "type": "address"
        },
        {
          "indexed": false,
          "name": "_id",
          "type": "uint256"
        },
        {
          "indexed": false,
          "name": "_amount",
          "type": "uint256"
        }
      ],
      "name": "TransferSingle",
      "type": "event"
    },
    {
      "anonymous": false,
      "inputs": [
        {
          "indexed": true,
          "name": "_operator",
          "type": "address"
        },
        {
          "indexed": true,
          "name": "_from",
          "type": "address"
        },
        {
          "indexed": true,
          "name": "_to",
          "type": "address"
        },
        {
          "indexed": false,
          "name": "_ids",
          "type": "uint256[]"
        },
        {
          "indexed": false,
          "name": "_amounts",
          "type": "uint256[]"
        }
      ],
      "name": "TransferBatch",
      "type": "event"
    },
    {
      "anonymous": false,
      "inputs": [
        {
          "indexed": true,
          "name": "_owner",
          "type": "address"
        },
        {
          "indexed": true,
          "name": "_operator",
          "type": "address"
        },
        {
          "indexed": false,
          "name": "_approved",
          "type": "bool"
        }
      ],
      "name": "ApprovalForAll",
      "type": "event"
    },
    {
      "anonymous": false,
      "inputs": [
        {
          "indexed": false,
          "name": "_uri",
          "type": "string"
        },
        {
          "indexed": true,
          "name": "_id",
          "type": "uint256"
        }
      ],
      "name": "URI",
      "type": "event"
    }
  ],
  "bytecode": "0x608060405234801561001057600080fd5b5061216a806100206000396000f3fe6080604052600436106100a3576000357c0100000000000000000000000000000000000000000000000000000000900463ffffffff168062fdd58e146100a857806301ffc9a7146101175780632eb2c2d6146101895780634e1273f4146103b957806372d80f6f146104e9578063a22cb4651461054c578063db90e83c146105a9578063e985e9c5146105ff578063eaec5f8114610688578063f242432a146106e1575b600080fd5b3480156100b457600080fd5b50610101600480360360408110156100cb57600080fd5b81019080803573ffffffffffffffffffffffffffffffffffffffff169060200190929190803590602001909291905050506107fd565b6040518082815260200191505060405180910390f35b34801561012357600080fd5b5061016f6004803603602081101561013a57600080fd5b8101908080357bffffffffffffffffffffffffffffffffffffffffffffffffffffffff19169060200190929190505050610876565b604051808215151515815260200191505060405180910390f35b34801561019557600080fd5b506103b7600480360360a08110156101ac57600080fd5b81019080803573ffffffffffffffffffffffffffffffffffffffff169060200190929190803573ffffffffffffffffffffffffffffffffffffffff1690602001909291908035906020019064010000000081111561020957600080fd5b82018360208201111561021b57600080fd5b8035906020019184602083028401116401000000008311171561023d57600080fd5b919080806020026020016040519081016040528093929190818152602001838360200280828437600081840152601f19601f8201169050808301925050505050505091929192908035906020019064010000000081111561029d57600080fd5b8201836020820111156102af57600080fd5b803590602001918460208302840111640100000000831117156102d157600080fd5b919080806020026020016040519081016040528093929190818152602001838360200280828437600081840152601f19601f8201169050808301925050505050505091929192908035906020019064010000000081111561033157600080fd5b82018360208201111561034357600080fd5b8035906020019184600183028401116401000000008311171561036557600080fd5b91908080601f016020809104026020016040519081016040528093929190818152602001838380828437600081840152601f19601f82011690508083019250505050505050919291929050505061095f565b005b3480156103c557600080fd5b50610492600480360360408110156103dc57600080fd5b81019080803590602001906401000000008111156103f957600080fd5b82018360208201111561040b57600080fd5b8035906020019184602083028401116401000000008311171561042d57600080fd5b90919293919293908035906020019064010000000081111561044e57600080fd5b82018360208201111561046057600080fd5b8035906020019184602083028401116401000000008311171561048257600080fd5b9091929391929390505050610b98565b6040518080602001828103825283818151815260200191508051906020019060200280838360005b838110156104d55780820151818401526020810190506104ba565b505050509050019250505060405180910390f35b3480156104f557600080fd5b506105366004803603606081101561050c57600080fd5b81019080803590602001909291908035906020019092919080359060200190929190505050610d68565b6040518082815260200191505060405180910390f35b34801561055857600080fd5b506105a76004803603604081101561056f57600080fd5b81019080803573ffffffffffffffffffffffffffffffffffffffff169060200190929190803515159060200190929190505050610e47565b005b3480156105b557600080fd5b506105e2600480360360208110156105cc57600080fd5b8101908080359060200190929190505050610f48565b604051808381526020018281526020019250505060405180910390f35b34801561060b57600080fd5b5061066e6004803603604081101561062257600080fd5b81019080803573ffffffffffffffffffffffffffffffffffffffff169060200190929190803573ffffffffffffffffffffffffffffffffffffffff169060200190929190505050610f85565b604051808215151515815260200191505060405180910390f35b34801561069457600080fd5b506106cb600480360360408110156106ab57600080fd5b810190808035906020019092919080359060200190929190505050611019565b6040518082815260200191505060405180910390f35b3480156106ed57600080fd5b506107fb600480360360a081101561070457600080fd5b81019080803573ffffffffffffffffffffffffffffffffffffffff169060200190929190803573ffffffffffffffffffffffffffffffffffffffff16906020019092919080359060200190929190803590602001909291908035906020019064010000000081111561077557600080fd5b82018360208201111561078757600080fd5b803590602001918460018302840111640100000000831117156107a957600080fd5b91908080601f016020809104026020016040519081016040528093929190818152602001838380828437600081840152601f19601f820116905080830192505050505050509192919290505050611051565b005b600080600061080b84610f48565b809250819350505061086c6000808773ffffffffffffffffffffffffffffffffffffffff1673ffffffffffffffffffffffffffffffffffffffff16815260200190815260200160002060008481526020019081526020016000205482611019565b9250505092915050565b60006301ffc9a77c0100000000000000000000000000000000000000000000000000000000027bffffffffffffffffffffffffffffffffffffffffffffffffffffffff1916827bffffffffffffffffffffffffffffffffffffffffffffffffffffffff1916148061094757506397a409d27c0100000000000000000000000000000000000000000000000000000000027bffffffffffffffffffffffffffffffffffffffffffffffffffffffff1916827bffffffffffffffffffffffffffffffffffffffffffffffffffffffff1916145b15610955576001905061095a565b600090505b919050565b8473ffffffffffffffffffffffffffffffffffffffff163373ffffffffffffffffffffffffffffffffffffffff161480610a1f5750600160008673ffffffffffffffffffffffffffffffffffffffff1673ffffffffffffffffffffffffffffffffffffffff16815260200190815260200160002060003373ffffffffffffffffffffffffffffffffffffffff1673ffffffffffffffffffffffffffffffffffffffff16815260200190815260200160002060009054906101000a900460ff165b1515610ab9576040517f08c379a000000000000000000000000000000000000000000000000000000000815260040180806020018281038252603c8152602001807f455243313135355061636b656442616c616e636523736166654261746368547281526020017f616e7366657246726f6d3a20494e56414c49445f4f50455241544f520000000081525060400191505060405180910390fd5b600073ffffffffffffffffffffffffffffffffffffffff168473ffffffffffffffffffffffffffffffffffffffff1614151515610b84576040517f08c379a000000000000000000000000000000000000000000000000000000000815260040180806020018281038252603d8152602001807f455243313135355061636b656442616c616e636523736166654261746368547281526020017f616e7366657246726f6d3a20494e56414c49445f524543495049454e5400000081525060400191505060405180910390fd5b610b91858585858561128a565b5050505050565b60608282905085859050141515610c3d576040517f08c379a00000000000000000000000000000000000000000000000000000000081526004018080602001828103825260398152602001807f455243313135355061636b656442616c616e63652362616c616e63654f66426181526020017f7463683a20494e56414c49445f41525241595f4c454e4754480000000000000081525060400191505060405180910390fd5b606085859050604051908082528060200260200182016040528015610c715781602001602082028038833980820191505090505b50905060008060008090505b88889050811015610d5957610ca58787838181101515610c9957fe5b90506020020135610f48565b8093508194505050610d306000808b8b858181101515610cc157fe5b9050602002013573ffffffffffffffffffffffffffffffffffffffff1673ffffffffffffffffffffffffffffffffffffffff1673ffffffffffffffffffffffffffffffffffffffff16815260200190815260200160002060008581526020019081526020016000205483611019565b8482815181101515610d3e57fe5b90602001906020020181815250508080600101915050610c7d565b50829350505050949350505050565b6000602060020a82101515610e0b576040517f08c379a000000000000000000000000000000000000000000000000000000000815260040180806020018281038252602e8152602001807f455243313135355061636b656442616c616e636523777269746556616c75654981526020017f6e42696e3a204f564552464c4f5700000000000000000000000000000000000081525060400191505060405180910390fd5b60006001602060019060020a0203905060006001850160200261010003905080849060020a0281839060020a0219871617925050509392505050565b80600160003373ffffffffffffffffffffffffffffffffffffffff1673ffffffffffffffffffffffffffffffffffffffff16815260200190815260200160002060008473ffffffffffffffffffffffffffffffffffffffff1673ffffffffffffffffffffffffffffffffffffffff16815260200190815260200160002060006101000a81548160ff0219169083151502179055508173ffffffffffffffffffffffffffffffffffffffff163373ffffffffffffffffffffffffffffffffffffffff167f17307eab39ab6107e8899845ad3d59bd9653f200f220920489ca2b5937696c3183604051808215151515815260200191505060405180910390a35050565b60008061010060208402811515610f5b57fe5b0491506020610100811515610f6c57fe5b0483811515610f7757fe5b069050818191509150915091565b6000600160008473ffffffffffffffffffffffffffffffffffffffff1673ffffffffffffffffffffffffffffffffffffffff16815260200190815260200160002060008373ffffffffffffffffffffffffffffffffffffffff1673ffffffffffffffffffffffffffffffffffffffff16815260200190815260200160002060009054906101000a900460ff16905092915050565b6000806001602060019060020a02039050600060018401602002610100039050818186908060020a8204915050169250505092915050565b8473ffffffffffffffffffffffffffffffffffffffff163373ffffffffffffffffffffffffffffffffffffffff1614806111115750600160008673ffffffffffffffffffffffffffffffffffffffff1673ffffffffffffffffffffffffffffffffffffffff16815260200190815260200160002060003373ffffffffffffffffffffffffffffffffffffffff1673ffffffffffffffffffffffffffffffffffffffff16815260200190815260200160002060009054906101000a900460ff165b15156111ab576040517f08c379a00000000000000000000000000000000000000000000000000000000081526004018080602001828103825260378152602001807f455243313135355061636b656442616c616e636523736166655472616e73666581526020017f7246726f6d3a20494e56414c49445f4f50455241544f5200000000000000000081525060400191505060405180910390fd5b600073ffffffffffffffffffffffffffffffffffffffff168473ffffffffffffffffffffffffffffffffffffffff1614151515611276576040517f08c379a00000000000000000000000000000000000000000000000000000000081526004018080602001828103825260388152602001807f455243313135355061636b656442616c616e636523736166655472616e73666581526020017f7246726f6d3a20494e56414c49445f524543495049454e54000000000000000081525060400191505060405180910390fd5b6112838585858585611b6e565b5050505050565b8151835114151561134f576040517f08c379a00000000000000000000000000000000000000000000000000000000081526004018080602001828103825260428152602001807f455243313135355061636b656442616c616e6365235f7361666542617463685481526020017f72616e7366657246726f6d3a20494e56414c49445f4152524159535f4c454e4781526020017f544800000000000000000000000000000000000000000000000000000000000081525060600191505060405180910390fd5b60008061137385600081518110151561136457fe5b90602001906020020151610f48565b9150915060006113ed6000808a73ffffffffffffffffffffffffffffffffffffffff1673ffffffffffffffffffffffffffffffffffffffff168152602001908152602001600020600085815260200190815260200160002054838760008151811015156113dc57fe5b906020019060200201516001611ee8565b905060006114656000808a73ffffffffffffffffffffffffffffffffffffffff1673ffffffffffffffffffffffffffffffffffffffff1681526020019081526020016000206000868152602001908152602001600020548488600081518110151561145457fe5b906020019060200201516000611ee8565b905060008751905060008590506000600190505b8281101561165b576114a18a8281518110151561149257fe5b90602001906020020151610f48565b8097508198505050818714151561160257846000808e73ffffffffffffffffffffffffffffffffffffffff1673ffffffffffffffffffffffffffffffffffffffff168152602001908152602001600020600084815260200190815260200160002081905550836000808d73ffffffffffffffffffffffffffffffffffffffff1673ffffffffffffffffffffffffffffffffffffffff1681526020019081526020016000206000848152602001908152602001600020819055506000808d73ffffffffffffffffffffffffffffffffffffffff1673ffffffffffffffffffffffffffffffffffffffff16815260200190815260200160002060008881526020019081526020016000205494506000808c73ffffffffffffffffffffffffffffffffffffffff1673ffffffffffffffffffffffffffffffffffffffff16815260200190815260200160002060008881526020019081526020016000205493508691505b61162685878b8481518110151561161557fe5b906020019060200201516001611ee8565b945061164c84878b8481518110151561163b57fe5b906020019060200201516000611ee8565b93508080600101915050611479565b50836000808d73ffffffffffffffffffffffffffffffffffffffff1673ffffffffffffffffffffffffffffffffffffffff168152602001908152602001600020600088815260200190815260200160002081905550826000808c73ffffffffffffffffffffffffffffffffffffffff1673ffffffffffffffffffffffffffffffffffffffff1681526020019081526020016000206000888152602001908152602001600020819055508973ffffffffffffffffffffffffffffffffffffffff168b73ffffffffffffffffffffffffffffffffffffffff163373ffffffffffffffffffffffffffffffffffffffff167f4a39dc06d4c0dbc64b70af90fd698a233a518aa5d07e595d983b8c0526c8f7fb8c8c604051808060200180602001838103835285818151815260200191508051906020019060200280838360005b838110156117b3578082015181840152602081019050611798565b50505050905001838103825284818151815260200191508051906020019060200280838360005b838110156117f55780820151818401526020810190506117da565b5050505090500194505050505060405180910390a46118298a73ffffffffffffffffffffffffffffffffffffffff1661203f565b15611b615760008a73ffffffffffffffffffffffffffffffffffffffff1663bc197c81338e8d8d8d6040518663ffffffff167c0100000000000000000000000000000000000000000000000000000000028152600401808673ffffffffffffffffffffffffffffffffffffffff1673ffffffffffffffffffffffffffffffffffffffff1681526020018573ffffffffffffffffffffffffffffffffffffffff1673ffffffffffffffffffffffffffffffffffffffff168152602001806020018060200180602001848103845287818151815260200191508051906020019060200280838360005b8381101561192b578082015181840152602081019050611910565b50505050905001848103835286818151815260200191508051906020019060200280838360005b8381101561196d578082015181840152602081019050611952565b50505050905001848103825285818151815260200191508051906020019080838360005b838110156119ac578082015181840152602081019050611991565b50505050905090810190601f1680156119d95780820380516001836020036101000a031916815260200191505b5098505050505050505050602060405180830381600087803b1580156119fe57600080fd5b505af1158015611a12573d6000803e3d6000fd5b505050506040513d6020811015611a2857600080fd5b8101908080519060200190929190505050905063bc197c817c0100000000000000000000000000000000000000000000000000000000027bffffffffffffffffffffffffffffffffffffffffffffffffffffffff1916817bffffffffffffffffffffffffffffffffffffffffffffffffffffffff1916141515611b5f576040517f08c379a00000000000000000000000000000000000000000000000000000000081526004018080602001828103825260478152602001807f455243313135355061636b656442616c616e6365235f7361666542617463685481526020017f72616e7366657246726f6d3a20494e56414c49445f4f4e5f524543454956455f81526020017f4d4553534147450000000000000000000000000000000000000000000000000081525060600191505060405180910390fd5b505b5050505050505050505050565b611b7b8584846001612052565b611b888484846000612052565b8373ffffffffffffffffffffffffffffffffffffffff168573ffffffffffffffffffffffffffffffffffffffff163373ffffffffffffffffffffffffffffffffffffffff167fc3d58168c5ae7397731d063d5bbf3d657854427343f4c083240f7aacaa2d0f628686604051808381526020018281526020019250505060405180910390a4611c2b8473ffffffffffffffffffffffffffffffffffffffff1661203f565b15611ee15760008473ffffffffffffffffffffffffffffffffffffffff1663f23a6e6133888787876040518663ffffffff167c0100000000000000000000000000000000000000000000000000000000028152600401808673ffffffffffffffffffffffffffffffffffffffff1673ffffffffffffffffffffffffffffffffffffffff1681526020018573ffffffffffffffffffffffffffffffffffffffff1673ffffffffffffffffffffffffffffffffffffffff16815260200184815260200183815260200180602001828103825283818151815260200191508051906020019080838360005b83811015611d2e578082015181840152602081019050611d13565b50505050905090810190601f168015611d5b5780820380516001836020036101000a031916815260200191505b509650505050505050602060405180830381600087803b158015611d7e57600080fd5b505af1158015611d92573d6000803e3d6000fd5b505050506040513d6020811015611da857600080fd5b8101908080519060200190929190505050905063f23a6e617c0100000000000000000000000000000000000000000000000000000000027bffffffffffffffffffffffffffffffffffffffffffffffffffffffff1916817bffffffffffffffffffffffffffffffffffffffffffffffffffffffff1916141515611edf576040517f08c379a00000000000000000000000000000000000000000000000000000000081526004018080602001828103825260428152602001807f455243313135355061636b656442616c616e6365235f736166655472616e736681526020017f657246726f6d3a20494e56414c49445f4f4e5f524543454956455f4d4553534181526020017f474500000000000000000000000000000000000000000000000000000000000081525060600191505060405180910390fd5b505b5050505050565b60008060006001811115611ef857fe5b836001811115611f0457fe5b1415611f2a57611f148686611019565b9050611f238686868401610d68565b9150612033565b600180811115611f3657fe5b836001811115611f4257fe5b1415611f7857611f528686611019565b9050611f718686611f6c878561211c90919063ffffffff16565b610d68565b9150612032565b6040517f08c379a00000000000000000000000000000000000000000000000000000000081526004018080602001828103825260468152602001807f455243313135355061636b656442616c616e6365235f7669657755706461746581526020017f494442616c616e63653a20494e56414c49445f42494e5f57524954455f4f504581526020017f524154494f4e000000000000000000000000000000000000000000000000000081525060600191505060405180910390fd5b5b81915050949350505050565b600080823b905060008111915050919050565b60008061205e85610f48565b80925081935050506120c16000808873ffffffffffffffffffffffffffffffffffffffff1673ffffffffffffffffffffffffffffffffffffffff168152602001908152602001600020600084815260200190815260200160002054828686611ee8565b6000808873ffffffffffffffffffffffffffffffffffffffff1673ffffffffffffffffffffffffffffffffffffffff168152602001908152602001600020600084815260200190815260200160002081905550505050505050565b600082821115151561212d57600080fd5b60008284039050809150509291505056fea165627a7a723058201a673d365cb55a14798f48b4ff6988944c1231a114a13fd05cf865f941b47dba0029",
  "source": "pragma solidity ^0.5.0;\n// pragma experimental ABIEncoderV2;\n\nimport \"./ERC1155PackedBalance.sol\";\n\n\n/**\n * @dev Multi-Fungible Tokens with minting and burning methods. These methods assume\n *      a parent contract to be executed as they are `internal` functions.\n */\ncontract ERC1155MintBurnPackedBalance is ERC1155PackedBalance {\n\n\n  /****************************************|\n  |            Minting Functions           |\n  |_______________________________________*/\n\n  /**\n   * @notice Mint _amount of tokens of a given id\n   * @param _to      The address to mint tokens to\n   * @param _id      Token id to mint\n   * @param _amount  The amount to be minted\n   */\n  function _mint(address _to, uint256 _id, uint256 _amount)\n    internal\n  {\n    //Add _amount\n    _updateIDBalance(_to,   _id, _amount, Operations.Add); // Add amount to recipient\n\n    // Emit event\n    emit TransferSingle(msg.sender, address(0x0), _to, _id, _amount);\n  }\n\n  /**\n   * @notice Mint tokens for each (_ids[i], _amounts[i]) pair\n   * @param _to       The address to mint tokens to\n   * @param _ids      Array of ids to mint\n   * @param _amounts  Array of amount of tokens to mint per id\n   */\n  function _batchMint(address _to, uint256[] memory _ids, uint256[] memory _amounts)\n    internal\n  {\n    require(_ids.length == _amounts.length, \"ERC1155MintBurnPackedBalance#batchMint: INVALID_ARRAYS_LENGTH\");\n\n    // Number of mints to execute\n    uint256 nMint = _ids.length;\n\n     // Executing all minting\n    for (uint256 i = 0; i < nMint; i++) {\n      // Update storage balance\n      _updateIDBalance(_to,   _ids[i], _amounts[i], Operations.Add); // Add amount to recipient\n    }\n\n    // Emit batch mint event\n    emit TransferBatch(msg.sender, address(0x0), _to, _ids, _amounts);\n  }\n\n\n  /****************************************|\n  |            Burning Functions           |\n  |_______________________________________*/\n\n  /**\n   * @notice Burn _amount of tokens of a given token id\n   * @param _from    The address to burn tokens from\n   * @param _id      Token id to burn\n   * @param _amount  The amount to be burned\n   */\n  function _burn(address _from, uint256 _id, uint256 _amount)\n    internal\n  {\n    //Substract _amount\n    _updateIDBalance(_from, _id, _amount, Operations.Sub);\n\n    // Emit event\n    emit TransferSingle(msg.sender, _from, address(0x0), _id, _amount);\n  }\n\n\n  /**\n   * @notice Burn tokens of given token id for each (_ids[i], _amounts[i]) pair\n   * @param _from     The address to burn tokens from\n   * @param _ids      Array of token ids to burn\n   * @param _amounts  Array of the amount to be burned\n   */\n  function _batchBurn(address _from, uint256[] memory _ids, uint256[] memory _amounts)\n    internal\n  {\n    require(_ids.length == _amounts.length, \"ERC1155MintBurnPackedBalance#batchBurn: INVALID_ARRAYS_LENGTH\");\n\n    // Number of mints to execute\n    uint256 nBurn = _ids.length;\n\n     // Executing all minting\n    for (uint256 i = 0; i < nBurn; i++) {\n      // Update storage balance\n      _updateIDBalance(_from,   _ids[i], _amounts[i], Operations.Sub); // Add amount to recipient\n    }\n\n    // Emit batch mint event\n    emit TransferBatch(msg.sender, _from, address(0x0), _ids, _amounts);\n  }\n\n}\n\n",
  "sourcePath": "/Users/NichananK/consensys-academy/CryptoFPL/contracts/erc/erc1155/ERC1155MintBurnPackedBalance.sol",
  "compiler": {
    "name": "solc",
    "version": "0.5.0+commit.1d4f565a.Emscripten.clang"
  },
  "schemaVersion": "3.0.2",
  "updatedAt": "2019-07-30T13:16:24.066Z",
  "devdoc": {
    "details": "Multi-Fungible Tokens with minting and burning methods. These methods assume     a parent contract to be executed as they are `internal` functions.",
    "methods": {
      "balanceOf(address,uint256)": {
        "params": {
          "_id": "ID of the Token",
          "_owner": "The address of the token holder"
        },
        "return": "The _owner's balance of the Token type requested"
      },
      "balanceOfBatch(address[],uint256[])": {
        "params": {
          "_ids": "ID of the Tokens",
          "_owners": "The addresses of the token holders"
        },
        "return": "The _owner's balance of the Token types requested (i.e. balance for each (owner, id) pair)"
      },
      "getIDBinIndex(uint256)": {
        "params": {
          "_id": "Token id"
        },
        "return": "(Bin number, ID\"s index within that bin)"
      },
      "getValueInBin(uint256,uint256)": {
        "params": {
          "_binAmount": "uint256 containing the balances of IDS_PER_UINT256 ids",
          "_index": "Index at which to retrieve amount"
        },
        "return": "amount at given _index in _bin"
      },
      "isApprovedForAll(address,address)": {
        "params": {
          "_operator": "Address of authorized operator",
          "_owner": "The owner of the Tokens"
        },
        "return": "True if the operator is approved, false if not"
      },
      "safeBatchTransferFrom(address,address,uint256[],uint256[],bytes)": {
        "details": "Arrays should be sorted so that all ids in a same storage slot are adjacent (more efficient)",
        "params": {
          "_amounts": "Transfer amounts per token type",
          "_data": "Additional data with no specified format, sent in call to `_to`",
          "_from": "Source addresses",
          "_ids": "IDs of each token type",
          "_to": "Target addresses"
        }
      },
      "safeTransferFrom(address,address,uint256,uint256,bytes)": {
        "params": {
          "_amount": "Transfered amount",
          "_data": "Additional data with no specified format, sent in call to `_to`",
          "_from": "Source address",
          "_id": "ID of the token type",
          "_to": "Target address"
        }
      },
      "setApprovalForAll(address,bool)": {
        "params": {
          "_approved": "True if the operator is approved, false to revoke approval",
          "_operator": "Address to add to the set of authorized operators"
        }
      },
      "supportsInterface(bytes4)": {
        "params": {
          "_interfaceID": "The interface identifier, as specified in ERC-165"
        },
        "return": "`true` if the contract implements `_interfaceID` and"
      },
      "writeValueInBin(uint256,uint256,uint256)": {
        "params": {
          "_amount": "amount to store at _index in _bin",
          "_binAmount": "uint256 containing the balances of IDS_PER_UINT256 ids",
          "_index": "Index at which to retrieve amount"
        },
        "return": "amount at given _index in _bin"
      }
    }
  },
  "userdoc": {
    "methods": {
      "balanceOf(address,uint256)": {
        "notice": "Get the balance of an account's Tokens"
      },
      "balanceOfBatch(address[],uint256[])": {
        "notice": "Get the balance of multiple account/token pairs"
      },
      "getIDBinIndex(uint256)": {
        "notice": "Return the bin number and index within that bin where ID is"
      },
      "getValueInBin(uint256,uint256)": {
        "notice": "Return amount in _binAmount at position _index"
      },
      "isApprovedForAll(address,address)": {
        "notice": "Queries the approval status of an operator for a given owner"
      },
      "safeBatchTransferFrom(address,address,uint256[],uint256[],bytes)": {
        "notice": "Send multiple types of Tokens from the _from address to the _to address (with safety call)"
      },
      "safeTransferFrom(address,address,uint256,uint256,bytes)": {
        "notice": "Transfers amount amount of an _id from the _from address to the _to address specified"
      },
      "setApprovalForAll(address,bool)": {
        "notice": "Enable or disable approval for a third party (\"operator\") to manage all of caller's tokens"
      },
      "supportsInterface(bytes4)": {
        "notice": "Query if a contract implements an interface"
      },
      "writeValueInBin(uint256,uint256,uint256)": {
        "notice": "Return the updated _binAmount after writing _amount at _index"
      }
    }
  }
}