{
  "contractName": "SignatureValidator",
  "abi": [
    {
      "constant": true,
      "inputs": [
        {
          "name": "_signerAddress",
          "type": "address"
        },
        {
          "name": "_hash",
          "type": "bytes32"
        },
        {
          "name": "_data",
          "type": "bytes"
        },
        {
          "name": "_sig",
          "type": "bytes"
        }
      ],
      "name": "isValidSignature",
      "outputs": [
        {
          "name": "isValid",
          "type": "bool"
        }
      ],
      "payable": false,
      "stateMutability": "view",
      "type": "function"
    }
  ],
  "bytecode": "0x60806040527f035aff83d86937d35b32e04f0ddc6ff469290eef2f1b692d8a815c89404d474960010230604051602001808381526020018273ffffffffffffffffffffffffffffffffffffffff1673ffffffffffffffffffffffffffffffffffffffff166c010000000000000000000000000281526014019250505060405160208183030381529060405280519060200120600081905550610fd6806100a66000396000f3fe608060405260043610610041576000357c0100000000000000000000000000000000000000000000000000000000900463ffffffff168063fa4e12d714610046575b600080fd5b34801561005257600080fd5b506101cd6004803603608081101561006957600080fd5b81019080803573ffffffffffffffffffffffffffffffffffffffff16906020019092919080359060200190929190803590602001906401000000008111156100b057600080fd5b8201836020820111156100c257600080fd5b803590602001918460018302840111640100000000831117156100e457600080fd5b91908080601f016020809104026020016040519081016040528093929190818152602001838380828437600081840152601f19601f8201169050808301925050505050505091929192908035906020019064010000000081111561014757600080fd5b82018360208201111561015957600080fd5b8035906020019184600183028401116401000000008311171561017b57600080fd5b91908080601f016020809104026020016040519081016040528093929190818152602001838380828437600081840152601f19601f8201169050808301925050505050505091929192905050506101e7565b604051808215151515815260200191505060405180910390f35b60008082511115156102ad576040517f08c379a00000000000000000000000000000000000000000000000000000000081526004018080602001828103825260438152602001807f5369676e617475726556616c696461746f7223697356616c69645369676e617481526020017f7572653a204c454e4754485f475245415445525f5448414e5f305f524551554981526020017f524544000000000000000000000000000000000000000000000000000000000081525060600191505060405180910390fd5b600073ffffffffffffffffffffffffffffffffffffffff168573ffffffffffffffffffffffffffffffffffffffff1614151515610378576040517f08c379a00000000000000000000000000000000000000000000000000000000081526004018080602001828103825260338152602001807f5369676e617475726556616c696461746f7223697356616c69645369676e617481526020017f7572653a20494e56414c49445f5349474e45520000000000000000000000000081525060400191505060405180910390fd5b600061038383610de1565b7f0100000000000000000000000000000000000000000000000000000000000000900490506005808111156103b457fe5b60ff168160ff16101515610456576040517f08c379a000000000000000000000000000000000000000000000000000000000815260040180806020018281038252603a8152602001807f5369676e617475726556616c696461746f7223697356616c69645369676e617481526020017f7572653a20554e535550504f525445445f5349474e415455524500000000000081525060400191505060405180910390fd5b60008160ff16600581111561046757fe5b90506000806000806000600581111561047c57fe5b85600581111561048857fe5b1415610522576040517f08c379a00000000000000000000000000000000000000000000000000000000081526004018080602001828103825260368152602001807f5369676e617475726556616c696461746f7223697356616c69645369676e617481526020017f7572653a20494c4c4547414c5f5349474e41545552450000000000000000000081525060400191505060405180910390fd5b6001600581111561052f57fe5b85600581111561053b57fe5b141561073357604188511415156105e0576040517f08c379a00000000000000000000000000000000000000000000000000000000081526004018080602001828103825260378152602001807f5369676e617475726556616c696461746f7223697356616c69645369676e617481526020017f7572653a204c454e4754485f36355f524551554952454400000000000000000081525060400191505060405180910390fd5b6105f4600089610ef190919063ffffffff16565b925061060a602089610ef190919063ffffffff16565b915087604081518110151561061b57fe5b9060200101517f010000000000000000000000000000000000000000000000000000000000000090047f0100000000000000000000000000000000000000000000000000000000000000027f01000000000000000000000000000000000000000000000000000000000000009004935060018a85858560405160008152602001604052604051808581526020018460ff1660ff1681526020018381526020018281526020019450505050506020604051602081039080840390855afa1580156106e8573d6000803e3d6000fd5b5050506020604051035190508073ffffffffffffffffffffffffffffffffffffffff168b73ffffffffffffffffffffffffffffffffffffffff16149650869650505050505050610dd9565b6002600581111561074057fe5b85600581111561074c57fe5b141561099257604188511415156107f1576040517f08c379a00000000000000000000000000000000000000000000000000000000081526004018080602001828103825260378152602001807f5369676e617475726556616c696461746f7223697356616c69645369676e617481526020017f7572653a204c454e4754485f36355f524551554952454400000000000000000081525060400191505060405180910390fd5b610805600089610ef190919063ffffffff16565b925061081b602089610ef190919063ffffffff16565b915087604081518110151561082c57fe5b9060200101517f010000000000000000000000000000000000000000000000000000000000000090047f0100000000000000000000000000000000000000000000000000000000000000027f01000000000000000000000000000000000000000000000000000000000000009004935060018a60405160200180807f19457468657265756d205369676e6564204d6573736167653a0a333200000000815250601c018281526020019150506040516020818303038152906040528051906020012085858560405160008152602001604052604051808581526020018460ff1660ff1681526020018381526020018281526020019450505050506020604051602081039080840390855afa158015610947573d6000803e3d6000fd5b5050506020604051035190508073ffffffffffffffffffffffffffffffffffffffff168b73ffffffffffffffffffffffffffffffffffffffff16149650869650505050505050610dd9565b6003600581111561099f57fe5b8560058111156109ab57fe5b1415610b9e578a73ffffffffffffffffffffffffffffffffffffffff166320c13b0b8a8a6040518363ffffffff167c0100000000000000000000000000000000000000000000000000000000028152600401808060200180602001838103835285818151815260200191508051906020019080838360005b83811015610a3e578082015181840152602081019050610a23565b50505050905090810190601f168015610a6b5780820380516001836020036101000a031916815260200191505b50838103825284818151815260200191508051906020019080838360005b83811015610aa4578082015181840152602081019050610a89565b50505050905090810190601f168015610ad15780820380516001836020036101000a031916815260200191505b5094505050505060206040518083038186803b158015610af057600080fd5b505afa158015610b04573d6000803e3d6000fd5b505050506040513d6020811015610b1a57600080fd5b81019080805190602001909291905050507bffffffffffffffffffffffffffffffffffffffffffffffffffffffff19166320c13b0b7c0100000000000000000000000000000000000000000000000000000000027bffffffffffffffffffffffffffffffffffffffffffffffffffffffff1916149650869650505050505050610dd9565b60046005811115610bab57fe5b856005811115610bb757fe5b1415610d45578a73ffffffffffffffffffffffffffffffffffffffff16631626ba7e8b8a6040518363ffffffff167c01000000000000000000000000000000000000000000000000000000000281526004018083815260200180602001828103825283818151815260200191508051906020019080838360005b83811015610c4c578082015181840152602081019050610c31565b50505050905090810190601f168015610c795780820380516001836020036101000a031916815260200191505b50935050505060206040518083038186803b158015610c9757600080fd5b505afa158015610cab573d6000803e3d6000fd5b505050506040513d6020811015610cc157600080fd5b81019080805190602001909291905050507bffffffffffffffffffffffffffffffffffffffffffffffffffffffff19166320c13b0b7c0100000000000000000000000000000000000000000000000000000000027bffffffffffffffffffffffffffffffffffffffffffffffffffffffff1916149650869650505050505050610dd9565b6040517f08c379a000000000000000000000000000000000000000000000000000000000815260040180806020018281038252603a8152602001807f5369676e617475726556616c696461746f7223697356616c69645369676e617481526020017f7572653a20554e535550504f525445445f5349474e415455524500000000000081525060400191505060405180910390fd5b949350505050565b6000808251111515610e81576040517f08c379a00000000000000000000000000000000000000000000000000000000081526004018080602001828103825260378152602001807f4c6962427974657323706f704c617374427974653a20475245415445525f544881526020017f414e5f5a45524f5f4c454e4754485f524551554952454400000000000000000081525060400191505060405180910390fd5b816001835103815181101515610e9357fe5b9060200101517f010000000000000000000000000000000000000000000000000000000000000090047f0100000000000000000000000000000000000000000000000000000000000000029050600182510380835250809050919050565b600060208201835110151515610f95576040517f08c379a000000000000000000000000000000000000000000000000000000000815260040180806020018281038252603c8152602001807f4c696242797465732372656164427974657333323a20475245415445525f4f5281526020017f5f455155414c5f544f5f33325f4c454e4754485f52455155495245440000000081525060400191505060405180910390fd5b6020820191508183015190508090509291505056fea165627a7a723058203fd78375249070d164542097d0d552757d91466a8c9f49ae39b6135552b942c20029",
  "source": "pragma solidity ^0.5.0;\n// pragma experimental ABIEncoderV2;\n\nimport \"../erc/IERC1271Wallet.sol\";\nimport \"./LibBytes.sol\";\nimport \"./LibEIP712.sol\";\n\n/**\n * @dev Contains logic for signature validation.\n * Signatures from wallet contracts assume ERC-1271 support (https://github.com/ethereum/EIPs/blob/master/EIPS/eip-1271.md)\n * Notes: Methods are strongly inspired by contracts in https://github.com/0xProject/0x-monorepo/blob/development/\n */\ncontract SignatureValidator is LibEIP712 {\n  using LibBytes for bytes;\n\n  /***********************************|\n  |             Variables             |\n  |__________________________________*/\n\n\n  // bytes4(keccak256(\"isValidSignature(bytes,bytes)\")\n  bytes4 constant internal ERC1271_MAGICVALUE = 0x20c13b0b;\n\n  // Allowed signature types.\n  enum SignatureType {\n      Illegal,         // 0x00, default value\n      EIP712,          // 0x01\n      EthSign,         // 0x02\n      WalletBytes,     // 0x03 To call isValidSignature(bytes, bytes) on wallet contract\n      WalletBytes32,   // 0x04 To call isValidSignature(bytes32, bytes) on wallet contract\n      NSignatureTypes  // 0x05, number of signature types. Always leave at end.\n  }\n\n\n  /***********************************|\n  |        Signature Functions        |\n  |__________________________________*/\n\n  /**\n   * @dev Verifies that a hash has been signed by the given signer.\n   * @param _signerAddress  Address that should have signed the given hash.\n   * @param _hash           Hash of the EIP-712 encoded data\n   * @param _data           Full EIP-712 data structure that was hashed and signed\n   * @param _sig            Proof that the hash has been signed by signer.\n   * @return True if the address recovered from the provided signature matches the input signer address.\n   */\n  function isValidSignature(\n    address _signerAddress,\n    bytes32 _hash,\n    bytes memory _data,\n    bytes memory _sig\n  )\n    public\n    view\n    returns (bool isValid)\n  {\n    require(\n      _sig.length > 0,\n      \"SignatureValidator#isValidSignature: LENGTH_GREATER_THAN_0_REQUIRED\"\n    );\n\n    require(\n      _signerAddress != address(0x0),\n      \"SignatureValidator#isValidSignature: INVALID_SIGNER\"\n    );\n\n    // Pop last byte off of signature byte array.\n    uint8 signatureTypeRaw = uint8(_sig.popLastByte());\n\n    // Ensure signature is supported\n    require(\n      signatureTypeRaw < uint8(SignatureType.NSignatureTypes),\n      \"SignatureValidator#isValidSignature: UNSUPPORTED_SIGNATURE\"\n    );\n\n    // Extract signature type\n    SignatureType signatureType = SignatureType(signatureTypeRaw);\n\n    // Variables are not scoped in Solidity.\n    uint8 v;\n    bytes32 r;\n    bytes32 s;\n    address recovered;\n\n    // Always illegal signature.\n    // This is always an implicit option since a signer can create a\n    // signature array with invalid type or length. We may as well make\n    // it an explicit option. This aids testing and analysis. It is\n    // also the initialization value for the enum type.\n    if (signatureType == SignatureType.Illegal) {\n      revert(\"SignatureValidator#isValidSignature: ILLEGAL_SIGNATURE\");\n\n\n    // Signature using EIP712\n    } else if (signatureType == SignatureType.EIP712) {\n      require(\n        _sig.length == 65,\n        \"SignatureValidator#isValidSignature: LENGTH_65_REQUIRED\"\n      );\n      r = _sig.readBytes32(0);\n      s = _sig.readBytes32(32);\n      v = uint8(_sig[64]);\n      recovered = ecrecover(_hash, v, r, s);\n      isValid = _signerAddress == recovered;\n      return isValid;\n\n\n    // Signed using web3.eth_sign\n    } else if (signatureType == SignatureType.EthSign) {\n      require(\n        _sig.length == 65,\n        \"SignatureValidator#isValidSignature: LENGTH_65_REQUIRED\"\n      );\n      r = _sig.readBytes32(0);\n      s = _sig.readBytes32(32);\n      v = uint8(_sig[64]);\n      recovered = ecrecover(\n        keccak256(abi.encodePacked(\"\\x19Ethereum Signed Message:\\n32\", _hash)),\n        v,\n        r,\n        s\n      );\n      isValid = _signerAddress == recovered;\n      return isValid;\n\n\n    // Signature verified by wallet contract with data validation.\n    } else if (signatureType == SignatureType.WalletBytes) {\n      isValid = ERC1271_MAGICVALUE == IERC1271Wallet(_signerAddress).isValidSignature(_data, _sig);\n      return isValid;\n\n\n    // Signature verified by wallet contract without data validation.\n    } else if (signatureType == SignatureType.WalletBytes32) {\n      isValid = ERC1271_MAGICVALUE == IERC1271Wallet(_signerAddress).isValidSignature(_hash, _sig);\n      return isValid;\n    }\n\n    // Anything else is illegal (We do not return false because\n    // the signature may actually be valid, just not in a format\n    // that we currently support. In this case returning false\n    // may lead the caller to incorrectly believe that the\n    // signature was invalid.)\n    revert(\"SignatureValidator#isValidSignature: UNSUPPORTED_SIGNATURE\");\n  }\n\n}",
  "sourcePath": "/Users/NichananK/consensys-academy/CryptoFPL/contracts/utils/SignatureValidator.sol",
  "compiler": {
    "name": "solc",
    "version": "0.5.0+commit.1d4f565a.Emscripten.clang"
  },
  "schemaVersion": "3.0.2",
  "updatedAt": "2019-07-30T13:16:24.095Z",
  "devdoc": {
    "details": "Contains logic for signature validation. Signatures from wallet contracts assume ERC-1271 support (https://github.com/ethereum/EIPs/blob/master/EIPS/eip-1271.md) Notes: Methods are strongly inspired by contracts in https://github.com/0xProject/0x-monorepo/blob/development/",
    "methods": {
      "isValidSignature(address,bytes32,bytes,bytes)": {
        "details": "Verifies that a hash has been signed by the given signer.",
        "params": {
          "_data": "Full EIP-712 data structure that was hashed and signed",
          "_hash": "Hash of the EIP-712 encoded data",
          "_sig": "Proof that the hash has been signed by signer.",
          "_signerAddress": "Address that should have signed the given hash."
        },
        "return": "True if the address recovered from the provided signature matches the input signer address."
      }
    }
  },
  "userdoc": {
    "methods": {}
  }
}